:020000040800F2
:10000000A8280020D11B0008090400080B040008E0
:100010000F04000813040008170400080000000083
:100020000000000000000000000000001B040008A9
:100030001D040008000000001F040008210400083F
:10004000EB1B0008EB1B0008EB1B0008EB1B000878
:10005000EB1B0008EB1B0008EB1B0008EB1B000868
:10006000EB1B0008EB1B0008EB1B0008EB1B000858
:10007000EB1B0008EB1B0008EB1B0008EB1B000848
:10008000EB1B0008EB1B0008EB1B0008EB1B000838
:10009000EB1B0008EB1B0008EB1B0008EB1B000828
:1000A000EB1B0008EB1B0008EB1B0008EB1B000818
:1000B000EB1B00085F060008F50E0008EB1B0008AC
:1000C000EB1B0008EB1B0008EB1B0008EB1B0008F8
:1000D000EB1B0008451B0008DD1800087D06000822
:1000E000EB1B0008EB1B0008EB1B0008EB1B0008D8
:1000F000EB1B0008EB1B0008EB1B0008EB1B0008C8
:10010000EB1B0008EB1B0008FB100008EB1B0008B2
:10011000EB1B0008EB1B0008EB1B0008EB1B0008A7
:10012000EB1B0008EB1B0008EB1B0008EB1B000897
:1001300000F002F800F05FF80AA090E8000C82449A
:100140008344AAF10107DA4501D100F054F8AFF277
:10015000090EBAE80F0013F0010F18BFFB1A43F0A5
:100160000103184788730000A87300000A444FF089
:10017000000C10F8013B13F0070408BF10F8014B06
:100180001D1108BF10F8015B641E05D010F8016B4B
:10019000641E01F8016BF9D113F0080F1EBF10F8AF
:1001A000014BAD1C0C1B09D16D1E58BF01F801CBD2
:1001B000FAD505E014F8016B01F8016B6D1EF9D555
:1001C0009142D6D37047000000230024002500266A
:1001D000103A28BF78C1FBD8520728BF30C148BFAA
:1001E0000B607047642906F08380002070471FB5BC
:1001F0001FBD10B510BD06F09FFA1146FFF7F7FFBF
:1002000000F058F806F0BDFA03B4FFF7F2FF03BCA4
:1002100001F03EFC10B541F61F41092000F0F2F953
:100220004FF4165000F03BFA1B21544806F0AFF98A
:1002300005F06FFA10BD10B55148007808B10120E3
:1002400000E000204D4908704E48007808B10120B8
:1002500000E00020494948704B48007808B101206F
:1002600000E00020454988704848006806F082FF99
:100270004249C1F80F0046480068C1F813004548DC
:100280000068C1F817003E48007820B14248006875
:10029000C1F8030004E0414800683849C1F8030090
:1002A0003F4800683549C1F807003E480068C1F87A
:1002B0000B0010BD86B000BF3BA003C8CDE9040110
:1002C0003BA103C9CDE902013BA103C9CDE900016E
:1002D00001F074FB4FF4A06001F09AFC00F052FAB8
:1002E00000F01AFD4FF4E13000F06AFF00F0CAFCA4
:1002F00041F61F41632000F0D1FD4FF4E13001F0E1
:10030000D5FB00F023FAFFF785FF41F61F4142F2CB
:100310000F7000F0C5FE01F03BFB29A005F0B4FF13
:1003200032A005F0B1FF28E01548007848B1334805
:1003300000F093FF05F075FE01F03EF90020104932
:1003400008701048007850B12D4800F086FF05F085
:10035000D5FD02A800F081FF00200A4908700A4874
:10036000007850B1274800F078FF05F0C8FE6846D5
:1003700000F073FF002004490870D5E75401002005
:1003800000000020010000200200002004010020E5
:10039000FC00002000010020080100204C0100208A
:1003A0000C01002010010020A55A04800300000069
:1003B000A55A048003000D00A55A048003000C0018
:1003C0002D2D2D2D2D2D2D2DBBFAD6C7D4C6494F41
:1003D000542D56616375756D5761736865722D2D67
:1003E0002D2D2D2D2D2D2D2D0D0A0000496E6974FA
:1003F000204F7665720D0A0D0A00000019000020DA
:100400002000002027000020704700BFFEE700BF4B
:10041000FEE700BFFEE700BFFEE77047704770478A
:10042000704700000CB50020019000906C480068F7
:1004300040F480306A49086000BF6948006800F4F1
:10044000003000900198401C0190009818B9019864
:10045000B0F5A06FF1D16248006800F4003010B12F
:100460000120009001E0002000900098012843D175
:100470005C48006840F010005A490860084600686F
:1004800020F0030008600846006840F002000860A1
:1004900053484068524948600846406848600846EA
:1004A000406840F4806048600846406820F47C1052
:1004B00048600846406840F4E81048600846006814
:1004C00040F08070086000BF4548006800F0007090
:1004D0000028F9D04248406820F0030040494860B5
:1004E0000846406840F00200486000BF3C48406851
:1004F00000F00C000828F9D10CBD10B5FFF792FFF1
:1005000010BD10B53648006840F00100344908605D
:100510000846406834490840314948600846006848
:10052000324908402E4908600846006820F48020BF
:1005300008600846406820F4FE0048604FF41F0041
:100540008860FFF7DAFF4FF000602949086010BDAE
:1005500010B5002100200022214B5B6803F00C0144
:1005600021B1042906D0082928D107E0214B224CCB
:10057000236027E01F4B204C236023E0184B5B686F
:1005800003F47010164B5B6803F48032022303EB14
:10059000904022B9194B4343174C23600DE0104B98
:1005A0005B6803F4003323B1144B4343124C2360C4
:1005B00003E0104B4343104C236003E00D4B0E4C03
:1005C000236000BF00BF064B5B68C3F303130C4CF2
:1005D000E15C094B1B68CB40074C236010BD000059
:1005E00000100240002002400000FFF8FFFFF6FE6E
:1005F00008ED00E000127A000400002000093D0030
:10060000080000207FB505460C460121022001F0BC
:1006100096FEADF80850ADF804400020ADF80A0091
:10062000ADF8060001A9144801F0B4FF01221146FB
:10063000114802F026FB1D208DF8000000208DF8E7
:10064000010003208DF8020001208DF803006846A8
:1006500001F0E3FA0121084802F0F8FA7FBD10B575
:100660000121054802F0BBFD28B10121024802F03A
:10067000C7FD03F0C4FA10BD0004004008B540F205
:100680002551304802F080FF40B12E4802F0FCFEB8
:10069000C0B200900121684603F0AFFC08BD10B560
:1006A00086B004460121082001F03CFE01218804A7
:1006B00001F045FE234802F0A7FD4FF48060ADF83D
:1006C000100003208DF8120018208DF8130004A9E3
:1006D0001D4801F06BFB4FF40060ADF810000420E2
:1006E0008DF8130004A9184801F060FB0094002065
:1006F000ADF80400ADF80600ADF80800ADF80C0048
:100700000C20ADF80A0069460E4802F0C0FD012138
:100710000C4802F048FE012240F22551094802F03F
:100720004EFE27208DF8140001208DF815000320BF
:100730008DF8160001208DF8170005A801F06DFA5C
:1007400006B010BD00480040000C014008B5012172
:10075000082001F0E7FD4FF48070ADF80000102094
:100760008DF8030003208DF802006946044801F06B
:100770001DFB4FF48071024801F0C7FB08BD00006B
:10078000000C014000B587B001214FF4017001F069
:10079000C9FD4FF4004001F029FD8020ADF80400B0
:1007A00000208DF8070001A98E4801F0FFFA8E485D
:1007B00002F02EFF002002908DF80C008DF80D0045
:1007C0004FF4602004900020059001208DF818005F
:1007D00002A9854802F043FF0121834802F06BFF24
:1007E000814802F08AFF00BF7F4802F08BFF00289B
:1007F000FAD17D4802F090FF00BF7B4802F091FFE4
:100800000028FAD107B000BD10B504460723012225
:100810002146754802F0BBFF0121734802F08BFFAF
:1008200000BF0221704803F0F7F80028F9D06E48A5
:1008300003F014F810BD2DE9F04107460C460025E1
:10084000002608E03846FFF7DFFF0544052001F0E9
:10085000F2F8701CC6B2A642F4DBB5FBF4F080B22D
:10086000BDE8F0812DE9F05F82468B46594650463F
:10087000FFF7E1FF804606F07FF804460D464FF093
:1008800066325A4B2046294606F0C6F804460D4605
:100890004FF06632564B2046294606F0F1F9804665
:1008A000544A554B06F0B8F806460F4630463946CE
:1008B000BDE8F09F00B587B0012148F2800001F04B
:1008C00031FD4FF4004001F091FC8020ADF80400B0
:1008D00000208DF8070001A9484801F067FA484850
:1008E00002F096FE002002908DF80C008DF80D00AD
:1008F0004FF4602004900020059001208DF818002E
:1009000002A93F4802F0ABFE01213D4802F0D3FEB0
:100910003B4802F0F2FE00BF394802F0F3FE002827
:10092000FAD1374802F0F8FE00BF354802F0F9FE70
:100930000028FAD107B000BD10B5044607230122F4
:1009400021462F4802F023FF01212D4802F0F3FE3B
:1009500000BF02212A4803F05FF80028F9D0284898
:1009600002F07CFF10BD2DE9F04107460C46002542
:10097000002608E03846FFF7DFFF0544052001F0B8
:100980005AF8701CC6B2A642F4DBB5FBF4F080B294
:10099000BDE8F0812DE9F05F82468B46594650460E
:1009A000FFF7E1FF804605F0E7FF04460D464FF0F4
:1009B00066320E4B2046294606F02EF804460D46B8
:1009C0004FF066320A4B2046294606F059F9804618
:1009D000084A094B06F020F806460F4630463946CD
:1009E000BDE8F09F000801400024014066664A3FD0
:1009F00066660A404E36D964934D3E40001C014065
:100A0000003C014008B50121202001F08BFC4FF48F
:100A10004040ADF8000003208DF8020010208DF852
:100A200003006946964801F0C1F94FF480419448AB
:100A300001F069FA4FF40041914801F064FA08BDF1
:100A400008B54FF40040ADF8000003208DF8020017
:100A500010208DF803006946894801F0A7F908BD08
:100A600008B54FF40040ADF8000048208DF80300B1
:100A70006946834801F09AF908BD10B5FFF7E0FF19
:100A80004FF400417E4801F03EFA4FF480417C482B
:100A900001F039FA052000F0AAFF4FF40041784830
:100AA00001F033FA062000F0A2FF4FF480417448B1
:100AB00001F02BFA10BD10B5FFF7C2FF4FF48041D3
:100AC0006F4801F022FA4FF400416D4801F01DFA21
:100AD0004FF480416A4801F016FA062000F087FFC3
:100AE0004FF40041664801F00EFA062000F07FFF47
:100AF00010BD10B54FF48041614801F006FAFFF7D0
:100B00009FFF4FF400415E4801F0FFF9022000F022
:100B10006EFF4FF480415A4801F0F5F9052000F0CE
:100B200066FF4FF48041564801F0EFF910BD10B553
:100B30004FF48041524801F0E8F9FFF781FF4FF48C
:100B400000414F4801F0DFF9022000F050FF4FF460
:100B500080414B4801F0D7F9052000F048FF4FF4E1
:100B60008041474801F0D1F910BD10B50024FFF7CE
:100B700077FF4FF40041424801F0C5F9012000F031
:100B800036FF4FF480413E4801F0BDF9012000F0EE
:100B90002EFF07E0601CC4B2FA2C03DDFFF78BFFC9
:100BA000012010BD4FF40041354801F092F90028B2
:100BB000F0D14FF48041324801F0A7F90020F0E76E
:100BC00070B504460025FFF73BFF4FF480412C48E9
:100BD00001F09BF900BF22E004F08000002805DD51
:100BE0004FF40041264801F08EF904E04FF4004133
:100BF000234801F08AF96006040E4FF48041204832
:100C000001F081F9022000F0F2FE4FF480411C480F
:100C100001F07BF9022000F0EAFE681CC5B2082D45
:100C2000DADB70BD70B5054600260024FFF718FF1B
:100C300000BF1BE04FF48041114801F066F902202B
:100C400000F0D5FE4FF480410D4801F05CF96006DC
:100C5000040E4FF400410A4801F03BF908B1601C52
:100C6000C4B2012000F0C3FE701CC6B2082EE1DB46
:100C700015B9FFF75CFF01E0FFF73BFF204670BDB1
:100C80000014014008B50121202001F04BFBFF209A
:100C9000ADF8000010208DF8030003208DF802004D
:100CA0006946124801F082F80121104801F02BF941
:100CB00002210E4801F027F904210C4801F023F924
:100CC00008210A4801F01FF91021084801F01BF91A
:100CD0002021064801F017F94021044801F013F9DA
:100CE0008021024801F00FF908BD00000014014006
:100CF00010B50024FFF7C1FE8020FFF761FFFFF76A
:100D000034FF0446FE20FFF75BFFFFF72EFF04468B
:100D1000FFF7D1FE204610BD10B5FFF773FEFFF7B9
:100D2000E7FF0446204610BD2DE9F04F87B04FF095
:100D3000000AFFF7A2FE8020FFF742FFFFF715FF32
:100D40008346F320FFF73CFFFFF70FFF834600BF0A
:100D5000642000F070FEFFF790FE8120FFF730FF67
:100D60000AF101001FFA80FAFFF7FFFE8346BAF589
:100D70007A7F00D102E0BBF1000FE9D100BF012072
:100D8000FFF750FF05460120FFF74CFF0646002005
:100D9000FFF748FFFFF78FFE46EA052929F0030910
:100DA000484606F023FA019006F054F8344A354BD1
:100DB000CDE9020105F030FE334A344BCDE90401A0
:100DC00005F05EFF074605F0F1FC0446204607B03B
:100DD000BDE8F08F2DE9F04F87B04FF0000AFFF724
:100DE0004CFE8020FFF7ECFEFFF7BFFE8346F520A8
:100DF000FFF7E6FEFFF7B9FE834600BF642000F070
:100E00001AFEFFF73AFE8120FFF7DAFE0AF1010031
:100E10001FFA80FAFFF7A9FE8346BAF1640F00D1EA
:100E200002E0BBF1000FE9D100BF0120FFF7FAFE9D
:100E300005460120FFF7F6FE06460020FFF7F2FE0A
:100E4000FFF739FE46EA052929F00309484606F06E
:100E5000CDF9019005F0FEFF0D4A0E4BCDE90201E0
:100E600005F0DAFD00220C4BCDE9040105F008FF86
:100E7000074605F09BFC0446204607B0BDE8F08F0E
:100E8000619FC6DE07F7653FCDCCCCCCCC6C47402C
:100E90007644CF7701405F3F000018407FB505469C
:100EA0000C460121042001F04AFAADF80850ADF8D3
:100EB00004400020ADF80A00ADF8060001A965481D
:100EC00001F068FB01221146624801F0DAFE1E20A3
:100ED0008DF8000002208DF8010001208DF802003D
:100EE0008DF80300684600F098FE0121594801F092
:100EF000ADFE7FBD1CB50121564802F070F90028F7
:100F000043D00121534802F07BF953480078401C3C
:100F10005149087008460078082806DB0020087050
:100F2000FFF789F94D4804F0DFFD4D480078401C7B
:100F30004B4908700846007814280DDB0020087023
:100F400000F077FB47484849484B494ACDE9001033
:100F50004849494800F09BFB00F02DFD00F0B6FB2E
:100F6000464908700846007801280FD105F0ACF812
:100F7000322000F03CFD424800F001FA414942486D
:100F800000F046FA322000F032FD62E03B48007883
:100F9000022801D104F0FAFF38480078032807D16D
:100FA00005F092F804F0F2FF00203849088050E084
:100FB00032480078042803D101203549087048E000
:100FC0002E480078052803D101203249087040E0FE
:100FD0002A480078062803D101202F49087038E0FC
:100FE00026480078072812D12948007810B100203F
:100FF000274908702748007810B10020254908705B
:101000002548007810B100202349087021E01B48D2
:101010000078082800D11CE0184800780B2808D177
:101020001E48006808B9012000E000201B49086044
:101030000FE0124800780C280AD1184808380068D8
:1010400008B9012000E0002014490839086000E0D8
:1010500000BF1CBD000800402E00002054010020ED
:101060002F000020100100200C01002008010020AA
:101070000401002000010020FC00002018000020D6
:101080004C010020500100204A01002038000020BF
:101090000000002001000020020000209081224278
:1010A0007FB505460C460121082001F048F9ADF84E
:1010B0000850ADF804400020ADF80A00ADF8060075
:1010C00001A9334801F066FA01221146304801F0C7
:1010D000D8FD32208DF8000001208DF8010000209D
:1010E0008DF8020001208DF80300684600F095FDA0
:1010F0000121274801F0AAFD7FBD10B50121244838
:1011000002F06DF8002841D00121214802F078F862
:101110002048007850B32048007820B11F4800884C
:10112000401C1E4908801E4800881E4909888842C4
:1011300005DA1B480088401C1949088016E01A4847
:1011400000881A490968884205DA17480088401C57
:10115000154908800AE0164800881649098888421F
:1011600004DA13480088401C1149088012480078AE
:1011700060B10948007820B108480088401C074940
:1011800008800E480088401C0C49088010BD0000F3
:10119000000C004048010020020000203800002020
:1011A000300000204A010020320000204C010020C5
:1011B00034000020500100204501002036000020AE
:1011C00010B586B004460121480401F0B8F80121A9
:1011D000042001F0A7F80420ADF8140003208DF8D6
:1011E000160018208DF8170005A9F74800F0DEFD5D
:1011F0000820ADF8140004208DF8170005A9F24866
:1012000000F0D4FD26208DF8000000208DF80100AC
:101210008DF8020001208DF80300684600F0FDFC07
:1012200001940020ADF80800ADF80A00ADF80C00FC
:10123000ADF810000C20ADF80E0001A9E34802F053
:1012400026F8012240F22551E04802F0B8F80121C9
:10125000DE4802F0A8F806B010BD70B505460726B6
:1012600000240CE0295DD94802F00AF900BF4021B2
:10127000D64802F073F90128F9D1601CC4B2B44217
:10128000F0DB70BD1CB5D2A103C9CDE900016846F1
:10129000FFF7E3FF1CBD2DE9F0470546CE4928685E
:1012A00005F0B8FF824605F065FF86B2F7B24FEA57
:1012B0001628CA48C77180F806804FF00809002434
:1012C0000DE0C648015DC14802F0DAF800BF4021D8
:1012D000BE4802F043F90128F9D1601CC4B24C4564
:1012E000EFDBBDE8F0872DE9F0470546BA492868ED
:1012F00005F090FF824605F03DFF86B2F7B24FEA57
:101300001628B748C77180F806804FF008090024F6
:101310000DE0B348015DAD4802F0B2F800BF4021D6
:10132000AA4802F01BF90128F9D1601CC4B24C454F
:10133000EFDBBDE8F0872DE9F0470546286805F0AA
:1013400019FF0646F7B2C6F30728A648C77180F80A
:1013500006804FF0080900240DE0A248015D9B487B
:1013600002F08EF800BF4021984802F0F7F80128FB
:10137000F9D1601CC4B24C45EFDBBDE8F0872DE924
:10138000F04705463C21286890FBF1F6286890FB61
:10139000F1F201FB120706F0FF08C6F30729924895
:1013A00080F8078080F8069007F0FF08C7F3072948
:1013B0008E4880F8078080F806904FF0080A0024D5
:1013C0000DE08948015D814802F05AF800BF4021D4
:1013D0007E4802F0C3F80128F9D1601CC4B254451C
:1013E000EFDB012000F027FB00240DE07F48015DCA
:1013F000764802F045F800BF4021744802F0AEF88C
:101400000128F9D1601CC4B25445EFDBBDE8F08778
:101410002DE9F04706460F46358805F0FF084FEAEC
:101420001529734880F8078080F806904FF0080A65
:1014300000240DE06E48015D644802F021F800BF11
:101440004021624802F08AF80128F9D1601CC4B238
:101450005445EFDB3D8805F0FF084FEA1529654844
:1014600080F8078080F806904FF0080A00240DE00D
:101470006048015D554802F003F800BF4021534821
:1014800002F06CF80128F9D1601CC4B25445EFDBBE
:10149000BDE8F0872DE9F04705463C21286890FB20
:1014A000F1F6286890FBF1F201FB120706F0FF0845
:1014B000C6F30729504880F8078080F8069007F0A7
:1014C000FF08C7F307294D4880F8078080F8069089
:1014D0004FF0080A00240DE04748015D3B4801F049
:1014E000CFFF00BF4021394802F038F80128F9D178
:1014F000601CC4B25445EFDB012000F09CFA0024CC
:101500000DE03E48015D314801F0BAFF00BF4021C7
:101510002E4802F023F80128F9D1601CC4B25445CA
:10152000EFDBBDE8F0872DE9F04705463C21286850
:1015300090FBF1F6286890FBF1F201FB120706F030
:10154000FF08C6F307292E4880F8078080F8069028
:1015500007F0FF08C7F307292A4880F8078080F8BA
:1015600006904FF0080A00240DE02548015D174859
:1015700001F086FF00BF4021144801F0EFFF012871
:10158000F9D1601CC4B25445EFDB012000F053FADE
:1015900000240DE01B48015D0C4801F071FF00BF05
:1015A00040210A4801F0DAFF0128F9D1601CC4B2D9
:1015B0005445EFDBBDE8F0877CB513A103C9CDE945
:1015C00000010725002431E00008014000440040EC
:1015D000A55A048003000B0000002041AC0000204D
:1015E000B4000020A4000020BC000020C4000020A3
:1015F000CC000020D4000020DC000020E40000200B
:10160000EC000020F4000020A55A0480030007002D
:101610001DF80410C04801F033FF00BF4021BE4850
:1016200001F09CFF0128F9D1601CC4B2AC42EFDB91
:101630007CBD70B5FFF778FBB8490860FFF7CAFBBF
:10164000B74908600A210720FFF70CF9044605F0A6
:10165000ADF8B4490860B4480088B4490968084442
:10166000B34909880844B3490988401AB24909882E
:10167000401AB2490988401AB1490860B148008847
:10168000B1490860B1480088B149086070BD2DE9D2
:10169000F04707460C4615461E46DDE908893846E0
:1016A000FFF7F9FD2046FFF71EFE2846FFF743FE31
:1016B000A848007810B13046FFF761FE4046FFF7BA
:1016C000E9FE4846FFF72FFFBDE8F0872DE9F04F10
:1016D00087B000260027B046B146B246B346002088
:1016E0000690059004900390029001909A4800881B
:1016F000C0F30D05002D7DD000209749088000BF64
:1017000000BF00BF00BF00BF00BF0690059004905F
:10171000039002900190002477E09048005D90498A
:10172000095D884201D1701CC6B28E48005D8C49AB
:10173000095D884201D1781CC7B28B48005D884999
:10174000095D884203D108F1010000F0FF088748D5
:10175000005D8349095D884203D109F1010000F071
:10176000FF098348005D7E49095D884203D10AF183
:10177000010000F0FF0A7F48005D7949095D884259
:1017800003D10BF1010000F0FF0B7B48005D7449B1
:10179000095D884203D10698401CC0B20690774884
:1017A000005D6F49095D884203D10598401CC0B2B5
:1017B00005907348005D6A49095D884203D1049829
:1017C000401CC0B204906F48005D6549095D8842C5
:1017D00003D10398401CC0B203906B48005D604980
:1017E000095D884203D10298401CC0B2029067484C
:1017F000005D00E06EE05A49095D884203D101981E
:10180000401CC0B20190601C84B2AC4285DBAE4289
:1018100003D1012007B0BDE8F08FAF4201D1022013
:10182000F8E7A84501D10320F4E7A94501D1042038
:10183000F0E7AA4501D10520ECE7AB4501D1062030
:10184000E8E70698A84201D10720E3E70598801C45
:10185000A8420FD14248007A4149C97900EB810082
:10186000C0EB00108000314908600846FFF787FD93
:101870000820CFE70498801CA8420DD13848007A90
:101880003749C97900EB8100274908802849264853
:10189000FFF7BEFD0920BDE70398801CA8420CD1CC
:1018A0002F48007A2E49C97900EB81002049088031
:1018B0001D48FFF7ADFD0A20ACE70298A84201D110
:1018C0000B20A7E70198A84201D10C20A2E7002035
:1018D000054601E000209DE700BF9BE710B540F200
:1018E00025510D4801F050FEA0B10B4801F0CCFD90
:1018F000C4B219480088C0F30D0019490C541648A9
:101900000088401C1449088008460088C72801DD6B
:101910000020088010BD000000440040FC000020B2
:1019200000010020040100204A0100204C01002099
:101930005001002030000020320000203400002040
:1019400008010020360000200C0100203800002093
:1019500010010020000000203C000020500000206A
:101960006F01002059000020620000206B00002061
:10197000740000207D000020860000208F000020E1
:10198000960000209D0000203E000020470000201F
:1019900008B50121802000F0C5FC0720ADF800004B
:1019A00028208DF8030003208DF8020069460248C4
:1019B00000F0FCF908BD7047001C014010B56FF045
:1019C000040000F074F92E4800682E49B0FBF1F0D5
:1019D0002D4908700846007800EB4001C1EBC010AB
:1019E0004FF6FF7101EAC0002849088010BD01468A
:1019F000254A12784A434FF0E0235A6100229A6147
:101A00001A46126942F001021A6100BF4FF0E0224B
:101A1000106900F001021AB100F48032002AF5D0FA
:101A20004FF0E022126922F001024FF0E0231A6128
:101A300000229A6170470146144A12884A434FF0C7
:101A4000E0235A6100229A611A46126942F00102AB
:101A50001A6100BF4FF0E022106900F001021AB1D4
:101A600000F48032002AF5D04FF0E022126922F013
:101A700001024FF0E0231A6100229A6170470000D2
:101A80000400002000127A0014010020160100203A
:101A900000BF704700BF4A4A128802F04002002A85
:101AA000F9D0C2B2464B1B1D1A80704710B586B0E4
:101AB0000446012144F2040000F034FC4FF40070AD
:101AC000ADF8140003208DF8160018208DF81700CB
:101AD00005A93C4800F06AF94FF48060ADF81400A5
:101AE00004208DF8170005A9364800F05FF925207D
:101AF0008DF8000003208DF801008DF80200012010
:101B00008DF80300684600F088F801940020ADF8D5
:101B10000800ADF80A00ADF80C00ADF810000C207C
:101B2000ADF80E0001A9264801F0B1FB012240F2F8
:101B30002551234801F043FC0121214801F033FCE9
:101B400006B010BD10B540F225511D4801F01CFD36
:101B500010B31B4801F098FCC4B21B48008800F485
:101B60000040C8B91848008800F4804060B10A2CD1
:101B700003D000201449088020E01348008840F476
:101B800000401149088019E00D2C06D10E4800884C
:101B900040F480400C49088010E00B480088C0F3F6
:101BA0000D000A490C5408480088401C064908806A
:101BB00008460088C72801DD0020088010BD00000D
:101BC00000380140000801401C01002037020020BD
:101BD0000948804709480047FEE7FEE7FEE7FEE7C1
:101BE000FEE7FEE7FEE7FEE7FEE7FEE704480549FD
:101BF000054A064B70470000030500083101000844
:101C0000A8160020A8280020A8180020A818002046
:101C100031490143314A1160704770B500210023FA
:101C20000F22C47804B32D4C246804F4E064C4F596
:101C3000E064210AC1F10403CA40447804FA03F1C4
:101C40008478144021430901254C0678A155047875
:101C500004F01F050124AC4005786D11AD0005F1BD
:101C6000E025C5F8004109E0047804F01F050124CF
:101C7000AC401C4D0678761145F8264070BD1A4AD6
:101C80000A400243154B1B1F1A60704739B1134AB3
:101C9000121D12680243114B1B1D1A6006E00F4A09
:101CA000121D126882430D4B1B1D1A6070470428D9
:101CB00008D14FF0E021096941F004014FF0E02222
:101CC000116107E04FF0E021096921F004014FF0B4
:101CD000E0221161704700000000FA050CED00E001
:101CE00000E400E080E100E080FFFF1F10B5044643
:101CF000CC48844208D10121042000F02DFB0021B2
:101D0000042000F029FB46E0C748844208D10121A5
:101D1000082000F021FB0021082000F01DFB3AE024
:101D2000C248844208D10121102000F015FB002197
:101D3000102000F011FB2EE0BD48844208D10121A3
:101D4000202000F009FB0021202000F005FB22E00C
:101D5000B848844208D10121402000F0FDFA00215A
:101D6000402000F0F9FA16E0B348844208D101217E
:101D7000802000F0F1FA0021802000F0EDFA0AE066
:101D8000AE48844207D10121801500F0E5FA002118
:101D9000A01500F0E1FA10BD10B50121084600F0D1
:101DA000DBFA0021012000F0D7FA10BD2DE9F04147
:101DB000024600250026002000230024002791F879
:101DC00003C00CF00F0591F803C00CF0100CBCF12F
:101DD000000F03D091F802C04CEA050591F800C04D
:101DE000BCF1000F31D0146800202BE04FF0010C43
:101DF0000CFA00F3B1F800C00CEA03069E4220D1B1
:101E000083004FF00F0C0CFA03F7BC4305FA03FCF8
:101E10004CEA040491F803C0BCF1280F06D14FF03E
:101E2000010C0CFA00FCC2F814C00AE091F803C0DF
:101E3000BCF1480F05D14FF0010C0CFA00FCC2F8C0
:101E400010C0401C0828D1D31460B1F800C0BCF108
:101E5000FF0F34DD546800202EE000F1080C4FF035
:101E6000010808FA0CF3B1F800C00CEA03069E4220
:101E700021D183004FF00F0C0CFA03F7BC4305FA95
:101E800003FC4CEA040491F803C0BCF1280F05D10F
:101E900000F1080C08FA0CF8C2F8148091F803C09D
:101EA000BCF1480F07D100F1080C4FF0010808FA07
:101EB0000CF8C2F81080401C0828CED35460BDE84E
:101EC000F0814FF6FF710180022181700421C17001
:101ED00070470246002093680B400BB1012000E0E0
:101EE000002070470146886880B270470246002093
:101EF000D3680B400BB1012000E000207047014681
:101F0000C86880B2704701617047416170470AB18B
:101F1000016100E041617047C16070474FF4803259
:101F20000A438261816182618269826970470246E7
:101F30000020434B18684FF68073184040EA0210A7
:101F400008433F4B186070473E49C8617047F0B581
:101F50000A46002300240021002500F00046B6F1C7
:101F6000004F02D1364EF16901E0354E7168C0F381
:101F7000034583B200F44016B6F5401F08D121F0A6
:101F800070612F4E766826F070662D4F7E6012E0ED
:101F900000F48016B6F5801F06D1032606FA05F474
:101FA000A14341F0706106E0460D360103FA06F6E2
:101FB000B14341F0706122B1460D360103FA06F6D5
:101FC000314300F00046B6F1004F02D11C4EF161E2
:101FD00001E01B4E7160F0BD30B500228B071C0F75
:101FE0000F2303FA04F2164B08338C1053F82430F5
:101FF0009343134C08348D1044F8253023468C103D
:1020000053F824308C07240F00FA04F423430C4CBB
:1020100008348D1044F8253030BD0A49DC310860A1
:102020007047000000080140000C01400010014012
:102030000014014000180140001C01400020014034
:102040000000014000002042DF48006840F001002D
:10205000DD49086008464068DC490840DA494860C4
:1020600008460068DA490840D74908600846006811
:1020700020F4802008600846406820F4FE00486094
:102080004FF41F0088607047CF49096821F4803100
:10209000CD4A11601146096821F480211160B0F524
:1020A000803F03D0B0F5802F0ED106E0C649096805
:1020B00041F48031C44A116007E0C349096841F422
:1020C000A021C14A116000E000BF00BF704710B5F9
:1020D00001460022002300204A11012A02D1BA4CF5
:1020E000236806E0022A02D1B74C236A01E0B64C0D
:1020F000636A01F01F02012494401C400CB10120CE
:1021000000E0002010BD38B500200090002400251C
:1021100000BF3120FFF7DBFF05460098401C009010
:102120000098B0F5A06F01D0002DF2D03120FFF75C
:10213000CEFF08B1012400E00024204638BD01464E
:102140000020A14A106820F0F80040EAC1001060A9
:102150007047A04908607047024600209A4B5868B3
:1021600020F47C1042EA01031843974B58607047F3
:1021700098490866704701460020934A506820F04D
:1021800003000843506070478F48406800F00C001F
:102190007047014600208C4A506820F0F000084348
:1021A0005060704701460020874A506820F4E06084
:1021B00008435060704701460020834A506820F46D
:1021C000605040EAC1005060704729B17E4A527A9F
:1021D00002437D4B5A7204E07B4A527A82437A4B27
:1021E0005A7270477B49D831086070470146002019
:1021F000754A506820F44040084350607047002101
:10220000714A20321170704A82F82010012802D0E1
:1022100004280AD104E001216B4A2032117005E044
:102220000521694A2032117000E000BF00BF7047ED
:102230006949086070476449096A0143624A11624A
:102240007047654944390860704730B50021002265
:10225000002400235C4D6D6805F00C0121B10429B8
:1022600005D0082923D105E05C4D056022E05B4DD7
:1022700005601FE0544D6D6805F47012524D6D6895
:1022800005F48034022505EB92421CB9544D5543A8
:1022900005600BE04C4D6D6805F400351DB1504DE7
:1022A0005543056002E04D4D5543056002E04B4D3E
:1022B000056000BF00BF444D6D6805F0F0010909DD
:1022C000484D6B5C0568DD4045603F4D6D6805F429
:1022D000E061090A434D6B5C4568DD4085603A4D1D
:1022E0006D6805F46051C90A3E4D6B5C4568DD4080
:1022F000C560354D6D6805F44041890B3A4D6B5C06
:10230000C568B5FBF3F5056130BD29B12E4A5269A8
:1023100002432D4B5A6104E02B4A526982432A4BF7
:102320005A61704729B1284A92690243264B9A6143
:1023300004E0254A92698243234B9A61704729B190
:10234000214AD2690243204BDA6104E01E4AD26975
:1023500082431D4BDA61704729B11B4AD2680243A0
:10236000194BDA6004E0184AD2688243164BDA60EF
:10237000704729B1144A12690243134B1A6104E0F1
:10238000114A12698243104B1A6170471249403951
:10239000086070470F49C86470470B49C87170479F
:1023A0000948406A40F0807007494862704701461A
:1023B0000020054A92680A400AB1012000E000208E
:1023C0007047014988727047001002400000FFF812
:1023D000FFFFF6FE000042428004424200127A00F3
:1023E00000093D001E0100202E01002010B504460A
:1023F000FE48844208D10121C014FFF7ADFF00213F
:10240000E014FFF7A9FFC4E0B4F1804F08D1012127
:102410000846FFF7AEFF00210120FFF7AAFFB8E052
:10242000F348844208D101210220FFF7A2FF0021D6
:102430000220FFF79EFFACE0EE48844208D1012164
:102440000420FFF796FF00210420FFF792FFA0E091
:10245000E948844208D101210820FFF78AFF0021C2
:102460000820FFF786FF94E0E448844208D1012168
:102470001020FFF77EFF00211020FFF77AFF88E091
:10248000DF48844208D101212020FFF772FF00219C
:102490002020FFF76EFF7CE0DA48844208D101215A
:1024A0004014FFF759FF00216014FFF755FF70E05B
:1024B000D548844209D10121C804FFF74DFF00210E
:1024C0004FF40020FFF748FF63E0D048844209D171
:1024D00001210805FFF740FF00214FF48010FFF7AE
:1024E0003BFF56E0CA48844209D101214805FFF765
:1024F00033FF00214FF40010FFF72EFF49E0C548DD
:10250000844208D101214020FFF733FF0021402001
:10251000FFF72FFF3DE0C048844208D10121802011
:10252000FFF727FF00218020FFF723FF31E0BB48A2
:10253000844208D101218015FFF71BFF0021A0155F
:10254000FFF717FF25E0B648844209D101210804AE
:10255000FFF702FF00214FF48030FFF7FDFE18E087
:10256000B048844209D101214804FFF7F5FE00215B
:102570004FF40030FFF7F0FE0BE0AB48844208D187
:1025800001218804FFF7E8FE00214FF48020FFF7C7
:10259000E3FE10BD00220288944B98420ED0994B66
:1025A00098420BD0B0F1804F08D0914B984205D0A3
:1025B000904B984202D0904B984204D14FF68F73C3
:1025C0001A404B881A438D4B984207D08C4B984247
:1025D00004D04FF6FF431A40CB881A4302808B8801
:1025E00083850B880385814B98420BD0854B98429D
:1025F00008D08B4B984205D08A4B984202D08A4B28
:10260000984201D10B7A038601238382704770B50B
:10261000002400220023058C4FF6FE763540058409
:10262000028C8388048B4FF68F752C40B51E2C408E
:102630000D882C43751E2A400D892A434D882A4354
:102640006A4DA8420BD06F4DA84208D0744DA842E5
:1026500005D0744DA84202D0734DA84213D14FF655
:10266000F7752A404D892A434FF6FB752A408D881D
:102670002A434FF6FF652B404FF6FF552B408D89BF
:102680002B43CD892B4383800483CD8885860284A8
:1026900070BD70B5002400220023058C4FF6EF7644
:1026A00035400584028C8388048B48F6FF752C40E6
:1026B0004FF6FF452C400D884FF6FF7606EA0525BC
:1026C0002C434FF6DF752A400D8906EA05152A438B
:1026D0004D8806EA05152A43444DA84202D0494DCB
:1026E000A8421DD14FF67F752A404D894FF6FF76DF
:1026F00006EA05152A434FF6BF752A408D8806EA7B
:1027000005152A434FF6FF352B404FF2FF752B403E
:102710008D8906EA85052B43CD8906EA85052B437D
:1027200083800483CD880587028470BD70B5002442
:1027300000220023058C4FF6FF6635400584028C8D
:102740008388848B4FF68F752C404FF6FC752C4098
:102750000D882C434FF6FF552A400D894FF6FF7622
:1027600006EA05252A434D8806EA05252A431F4D1A
:10277000A84202D0234DA8421DD14FF2FF752A4036
:102780004D894FF6FF7606EA05252A434FF6FF35B9
:102790002A408D8806EA05252A434EF6FF752B4010
:1027A0004DF6FF752B408D8906EA05152B43CD8923
:1027B00006EA05152B4383808483CD8885870284B0
:1027C00070BD70B5002200230024058C4EF6FF7604
:1027D00035400584038C8488828B48F6FF752A4037
:1027E0004FF6FF452A400D8820E00000002C0140F4
:1027F0000004004000080040000C004000100040B1
:102800000014004000340140004C014000500140E1
:102810000054014000180040001C0040002000400F
:102820000040014000440140004801404FF6FF765F
:1028300006EA05252A434DF6FF752B400D8906EA69
:1028400005352B434D8806EA05352B43FA4DA84242
:1028500002D0FA4DA84208D14BF6FF752C408D8965
:102860004FF6FF7606EA85152C4384808283CD8857
:10287000A0F84050038470BD828B4FF2FF331A40A2
:102880008283828B4FF6FF7303EA01231A4382830C
:102890007047F0B50C461546002200210026078C33
:1028A0004EF6FF7C07EA0C070784828B018C4FF6FB
:1028B000FF7707EA043640F6FF473A404FF6FF77C6
:1028C00007EA05273A434FF6FF7707EA03373A430B
:1028D000D94FB8420ED0D94FB8420BD0B0F1804F8B
:1028E00008D0D74FB84205D0D64FB84202D0D64F05
:1028F000B84206D14DF6FF77394046F48057394348
:1029000005E047F6FF57394044F480573943828346
:102910000184F0BD828B4FF6F3731A408283828B61
:102920000A4382837047F0B50C4615460022002109
:102930000026078C4FF6FF6C07EA0C070784828B92
:10294000018C4FF6FF7707EA04264FF60C773A40E2
:102950004FF6FF7707EA03172F433A43B64FB842C3
:102960000ED0B64FB8420BD0B0F1804F08D0B44F64
:10297000B84205D0B34FB84202D0B34FB84206D1E7
:102980004FF6FF57394046F48077394305E04FF260
:10299000FF57394044F48077394382830184F0BD86
:1029A000028B4FF2FF331A400283028B4FF6FF7304
:1029B00003EA01231A4302837047F0B50C4615461B
:1029C000002200210026078C4FF6EF7C07EA0C0757
:1029D0000784028B018C4FF6FF7707EA041640F656
:1029E000FF473A404FF6FF7707EA03373A434FF67F
:1029F000FF7707EA05273A438F4FB8420ED08F4F33
:102A0000B8420BD0B0F1804F08D08D4FB84205D0FE
:102A10008C4FB84202D08C4FB84206D14FF6DF77C8
:102A2000394046F01007394305E04FF65F773940EB
:102A300044F01007394302830184F0BD028B4FF646
:102A4000F3731A400283028B0A4302837047F0B586
:102A50000C46154600220021068C4FF6FE773E40BC
:102A60000684028B018C4FF60C7632407E1C06EAFF
:102A700003162E433243704EB0420ED06F4EB0421A
:102A80000BD0B0F1804F08D06D4EB04205D06D4EE6
:102A9000B04202D06C4EB04206D14FF6FD763140C6
:102AA00044F00106314305E04FF6F576314044F03D
:102AB0000106314302830184F0BD70B505460C4622
:102AC0005D4885420ED05D4885420BD0B5F1804F00
:102AD00008D05B48854205D05A48854202D05A4802
:102AE000854200D100E000BF208850B92389A28828
:102AF00061882846FFF7ABFFE1882846FFF79EFF75
:102B000025E0208804280AD12389A28861882846E4
:102B1000FFF753FFE1882846FFF742FF17E02088C0
:102B200008280AD12389A28861882846FFF7FBFE7E
:102B3000E1882846FFF7EEFE09E02389A288618834
:102B40002846FFF7A6FEE1882846FFF795FE70BDF0
:102B50002DE9F04105460C4600260127608808B99A
:102B6000022600E00026A088012801D1022700E00B
:102B700001272088A0B92389A28861882846FFF709
:102B800066FFE1882846FFF759FF23893A46314618
:102B90002846FFF712FFE1882846FFF701FF13E000
:102BA0002389A28861882846FFF707FFE188284625
:102BB000FFF7F6FE23893A4631462846FFF747FFDE
:102BC000E1882846FFF73AFFBDE8F0810A884B8884
:102BD0001A438B881A43CB881A430B891A434B89B3
:102BE0001A438B891A43A0F8442070474FF6FF71AF
:102BF000818000210180C1804180017270470021E5
:102C0000018041808180C180018141818181C181B8
:102C10007047002101804180012181800021C18015
:102C2000018170470021018041808180C180018144
:102C30004181818170470000002C01400034014037
:102C40000004004000080040000C004021B1028850
:102C500042F00102028004E002884FF6FE731A403F
:102C60000280704731B1B0F8442042F40042A0F82D
:102C7000442005E0B0F84420C2F30E02A0F844203E
:102C800070471AB183890B43838102E083898B43A8
:102C9000838170478182704741EA0203A0F848307F
:102CA00070471AB183890B43838102E083898B4388
:102CB0008381704701894FF6F87211400181704796
:102CC0000A46002101894FF68F7319401143018193
:102CD000704730B504460D4629462046FFF7F0FF01
:102CE000208940F00700208130BD2DE9F0410446E5
:102CF0000D4616461F46602D06D13B460122314641
:102D00002046FFF75AFE05E03B46012231462046A9
:102D1000FFF79DFE29462046FFF7D2FF208940F0AD
:102D200007002081BDE8F08130B50C460021018903
:102D3000C9B24FF6FF7505EA03251543254329431C
:102D4000018130BD2DE9F04105460E4617469846F3
:102D5000002443463A4631462846FFF7E5FF2C89D2
:102D60004FF6F870044044F007044FF68F700440AB
:102D700044F070042C81BDE8F081F0B504460D46A6
:102D800016461F463B46324629462046FFF7CCFFF3
:102D9000208940F480402081F0BD01858282704707
:102DA0000A46002101884FF68F73194011430180B4
:102DB0007047F0B50C4615461E4600210022002340
:102DC0000189028B038C4FF6F877394021434FF687
:102DD000FC473A4040F201173A434FF6DD773B405B
:102DE0004FF6FF7707EA06172F433B430181028323
:102DF0000384F0BD0A460021018B4FF68F73194002
:102E00001143018370470A460021018B48F6FF7386
:102E100019404FF6FF7303EA0223194301837047F9
:102E20000A460021818B4FF68F731940114381832D
:102E300070470A460021818B48F6FF7319404FF610
:102E4000FF7303EA022319438183704721B102888B
:102E500042F08002028004E002884FF67F731A403D
:102E60000280704721B1828842F00402828004E02F
:102E700082884FF6FB731A408280704721B18288A6
:102E800042F00802828004E082884FF6F7731A400D
:102E90008280704721B1828842F00102828004E082
:102EA00082884FF6FE731A40828070470A460021DE
:102EB000018B4FF6F77319401143018370470A469F
:102EC0000021018B4FF2FF7319404FF6FF7303EAA5
:102ED00002231943018370470A460021818B4FF674
:102EE000F77319401143818370470A460021818B93
:102EF0004FF2FF7319404FF6FF7303EA02231943A1
:102F0000818370470A460021018B4FF6FB731940FD
:102F10001143018370470A460021018B4FF6FF33AE
:102F200019404FF6FF7303EA0223194301837047E8
:102F30000A460021818B4FF6FB73194011438183B0
:102F400070470A460021818B4FF6FF3319404FF638
:102F5000FF7303EA02231943818370470A46002165
:102F6000018B4FF67F7319401143018370470A4666
:102F70000021018BC1F30E014FF6FF7303EA022318
:102F80001943018370470A460021818B4FF67F73F6
:102F900019401143818370470A460021818BC1F398
:102FA0000E014FF6FF7303EA022319438183704732
:102FB0000A460021018C4FF6FD731940114301842C
:102FC00070470A460021018C4FF6F77319401143F0
:102FD000018470470A460021018C4FF6DF731940C7
:102FE0004FF6FF7303EA02131943018470470A4640
:102FF0000021018C4FF67F7319404FF6FF7303EAEF
:1030000002131943018470470A460021018C4FF6D0
:10301000FF5319404FF6FF7303EA0223194301845B
:1030200070470A460021018C4FF2FF7319404FF69A
:10303000FF7303EA02231943018470470A46002103
:10304000018C4DF6FF7319404FF6FF7303EA02330C
:1030500019430184704730B5002301248C40A3B28A
:10306000048C9C430484048C02FA01F5ADB22C4319
:10307000048430BD30B5002304248C40A3B2048CFA
:103080009C430484048C02FA01F5ADB22C43048401
:1030900030BD70B5034600200024184618300125C5
:1030A0008D40ACB21D8CA5431D8409B1082909D1FE
:1030B00000EB6100056825F07005056005681543A3
:1030C00005600EE00D1FC5F34E052844056825F484
:1030D000E045056005684FF6FF7606EA02263543AF
:1030E000056070BD21B1028842F00202028004E056
:1030F00002884FF6FD731A400280704721B10288A2
:1031000042F00402028004E002884FF6FB731A408A
:103110000280704721B1828842F08002828004E000
:1031200082884FF67F731A408280704702884FF67C
:10313000F7731A40028002880A430280704782882F
:103140004FF68F731A40828082880A4382807047CC
:1031500002894FF6F8731A40028102890A430281FC
:10316000704702894FF67F731A40028102890A4331
:1031700002817047818470478185704781867047DE
:103180000187704781877047A0F840107047028818
:103190004FF6FF431A40028002880A4302807047BC
:1031A0000146888E70470146088F70470146888F18
:1031B00070470146B1F8400070470146888C70475F
:1031C0000146088D704702460020138A0B400BB160
:1031D000012000E000207047CA430282704730B5EA
:1031E0000246002000230024158A05EA0103958980
:1031F00005EA010413B10CB1012000E0002030BD4C
:10320000CA4302827047000010B50446FB4884425E
:1032100009D101218803FFF79FF800214FF4804076
:10322000FFF79AF832E0F648844209D101214804B8
:10323000FFF79FF800214FF40030FFF79AF825E0E0
:10324000F048844209D101218804FFF792F8002157
:103250004FF48020FFF78DF818E0EB48844209D145
:103260000121C804FFF785F800214FF40020FFF783
:1032700080F80BE0E548844208D101210805FFF7FA
:1032800078F800214FF48010FFF773F810BD2DE996
:10329000F04786B005460E460024A24600BFA14670
:1032A0000027B08900B100BF2F462C8A4CF6FF7072
:1032B0000440F08804432C82AC894EF6F31004409D
:1032C000B08831890843718908430443AC81AC8AD2
:1032D0004FF6FF400440B0890443AC8201A8FEF7DA
:1032E000B4FFC648874202D1DDF810A001E0DDF846
:1032F0000CA0A88900F4004040B10AEBCA0000EB22
:103300000A1031684900B0FBF1F807E00AEBCA0087
:1033100000EB0A1031688900B0FBF1F86420B8FBBB
:10332000F0F004012009642101FB1089A88900F450
:10333000004040B1322000EBC900B0FBF1F000F0DA
:103340000700044308E0322000EB09106421B0FBC1
:10335000F1F000F00F0004432C8106B0BDE8F087C7
:103360004FF41651016000218180C18001810C2140
:10337000418100218181704710B502460020108AEA
:103380004FF2FF0318400B884C8823438C8823435B
:10339000CC8823431843108210BD00210180418056
:1033A0008180C180704721B1828942F400528281BC
:1033B00004E082894DF6FF731A4082817047F0B5B0
:1033C0000346002400260025002040F66A17B94273
:1033D00000D100BF1846C1F3421401F01F060127B7
:1033E00007FA06F5012C01D10C3004E0022C01D1C2
:1033F000103000E014301AB107682F43076002E074
:103400000768AF430760F0BD1AB1838A0B4383821C
:1034100002E0838A8B4383827047028A4FF6F073FF
:103420001A400282028A0A430282704782894FF25E
:10343000FF731A40828182890A438281704721B1D9
:10344000828942F00202828104E082894FF6FD7394
:103450001A4082817047028A4FF6DF731A40028257
:10346000028A0A430282704721B1028A42F48042F2
:10347000028204E0028A4BF6FF731A400282704710
:10348000C1F308028280704701468888C0F30800B3
:103490007047818941F0010181817047028BD2B26E
:1034A0000283028B42EA012202837047028B02F4FC
:1034B0007F420283028B0A430283704721B1828AD2
:1034C00042F02002828204E0828A4FF6DF731A40C3
:1034D0008282704721B1828A42F01002828204E027
:1034E000828A4FF6EF731A408282704721B1828A36
:1034F00042F00802828204E0828A4FF6F7731A4093
:103500008282704721B1828942F40042828103E0C5
:103510008289C2F30E028281704721B1828A42F40D
:103520000062828204E0828A4FF2FF731A40828234
:103530007047828A4FF6FB731A408282828A0A435E
:103540008282704721B1828A42F00202828204E0C4
:10355000828A4FF6FD731A4082827047024600202D
:10356000B1F5007F00D100BF13880B400BB10120E3
:1035700000E00020704701F40072B2F5007F00D136
:1035800000BFCA430280704770B502460024002382
:103590000025002040F66A16B14200D100BFC1F3F9
:1035A000421501F01F03012606FA03F3012D02D193
:1035B0009689334006E0022D02D1168A334001E09D
:1035C000968A33400C12012606FA04F41688344019
:1035D00013B10CB1012000E0002070BD10B5002235
:1035E000002340F66A14A14200D100BF0A12012450
:1035F0009440A3B2DC43048010BD000000380140B9
:103600000044004000480040004C00400050004092
:1036100010B50446FA48844208D101214015FEF74E
:103620009BFE00216015FEF797FE17E0F5488442E7
:1036300008D101210015FEF78FFE00212015FEF7AD
:103640008BFE0BE0F048844208D10121C803FEF74D
:1036500083FE00214FF40040FEF77EFE10BD30B522
:103660000246002000235068E84C20400D790C6889
:1036700044EA0524204350609068E54C2040D1E99D
:1036800002542C434D7944EA450420439060D06AAB
:1036900020F470000C7C641EE4B2234340EA035023
:1036A000D06230BD00210160017141718160C16053
:1036B00001210174704721B1826842F001028260E9
:1036C00003E0826822F001028260704721B18268C3
:1036D00042F48072826003E0826822F48072826029
:1036E000704710B50023CBB21AB144681C43446044
:1036F00002E044689C43446010BD816841F00801C9
:1037000081607047014600208A6802F008020AB111
:10371000012000E000207047816841F004018160D1
:103720007047014600208A6802F004020AB10120B5
:1037300000E00020704721B1826842F4A00282605C
:1037400003E0826822F4A0028260704701460020F4
:103750008A6802F480020AB1012000E0002070476C
:1037600010B50A4600210023416821F46041531E30
:1037700041EA4331416010BD21B1426842F4006228
:10378000426003E0426822F4006242607047F0B594
:1037900004460D4600200021092D11DDE068A5F149
:1037A0000A0606EB4607072606FA07F18843A5F145
:1037B0000A0606EB460603FA06F10843E0600CE051
:1037C000206905EB4507072606FA07F1884305EB54
:1037D000450603FA06F108432061072A0FDA606BF9
:1037E000561E06EB86071F2606FA07F18843561E6B
:1037F00006EB860605FA06F10843606322E00D2A0F
:103800000FDA206BD61F06EB86071F2606FA07F194
:103810008843D61F06EB860605FA06F108432063A7
:1038200010E0E06AA2F10D0606EB86071F2606FAF5
:1038300007F18843A2F10D0606EB860605FA06F1AC
:103840000843E062F0BD21B1826842F480128260D8
:1038500003E0826822F48012826070470146C86CDF
:1038600080B2704766484C300068704721B14268AA
:1038700042F48062426003E0426822F48062426067
:10388000704721B1426842F48052426003E04268CE
:1038900022F48052426070470A460021816821F478
:1038A000E04111438160704721B1826842F40042D7
:1038B000826003E0826822F400428260704721B196
:1038C000826842F40212826003E0826822F40212EB
:1038D00082607047014600208A6802F400120AB133
:1038E000012000E000207047F0B504461546002096
:1038F00000220026092911DDE068A1F10A0707EB83
:10390000470C072707FA0CF29043A1F10A0707EBCF
:10391000470703FA07F21043E0600CE0206901EB6F
:10392000410C072707FA0CF2904301EB410703FA19
:1039300007F210432061A06BC0F30156EF1C06F1A3
:10394000010CA7EB0C0707EB870C1F2707FA0CF2FB
:103950009043EF1C06F1010CA7EB0C0707EB870760
:1039600001FA07F21043A063F0BD10B50A4600212A
:103970000023816B21F44011531E41EA03518163FE
:1039800010BD08B5002300930090009B0B440093EA
:10399000009B1A6008BD08B5024600200090009206
:1039A00001F12800009B184400900098006880B244
:1039B00008BD0A4600214168164B19401143416079
:1039C00070474162826270470A460021416821F0D7
:1039D0001F0111434160704740B10949083109682E
:1039E00041F40001064A0832116007E00449083139
:1039F000096821F40001024A083211607047000092
:103A00000024014000280140003C0140FFFEF0FF7F
:103A1000FDF7F1FFFFFD3FFF0246002013680B405A
:103A20000BB1012000E000207047CA4302607047DC
:103A300070B502460020002300240B125568CEB258
:103A400005EA060415681D4015B10CB1012000E01F
:103A5000002070BD00220A12D343036070470000AB
:103A60002DE9FF4707460E4692464FF000083446C0
:103A7000B146354607B126B94FF0FF3004B0BDE876
:103A8000F0874FF00008B3E0781C10F80800162803
:103A90007AD2DFE800F0868788A7A7898A8B8CA76F
:103AA000A7A7A78D97930B253F596D7A2078734967
:103AB00008700846017872A002F0E6FB6F480078B3
:103AC000012806D174A002F0DFFB012076490870BE
:103AD00005E076A002F0D8FB00207349087082E070
:103AE0006078664948700846417876A002F0CCFBC1
:103AF00062484078012806D177A002F0C5FB01207A
:103B00007949087005E079A002F0BEFB00207649F3
:103B1000087068E0A078594988700846817877A0D5
:103B200002F0B2FB55488078012806D179A002F056
:103B3000ABFB01207C49087005E07CA002F0A4FBEF
:103B40000020794908704EE0D4F803004B49C1F8D1
:103B500003000846D0F8031079A002F095FB47480F
:103B6000D0F803007C4908600846FDF708FC3AE0FD
:103B7000D4F807004149C1F807000846D0F80710FB
:103B800076A002F081FB2EE02CE0D4F80B003B493C
:103B9000C1F80B000846D0F80B1076A002F074FBB9
:103BA00021E020E01FE01EE01DE01CE01BE01AE029
:103BB00099F8001076A002F067FB14E077A002F0FD
:103BC00063FB10E0D5F80700A9796A792B79CDE974
:103BD0000032CDE90210EB78AA78298874A002F0AF
:103BE00053FB00E000BF00BF08F1010000F0FF0838
:103BF000387840453FF748AF00203FE770477748A7
:103C00000068401C75490860704774480068704738
:103C100000B5FFF7F4FF00BD08B5002000900121BA
:103C2000684600F0EAF908BD70B505460E46002466
:103C30000DB9601E70BD00241BE0295D6848FFF7C8
:103C40001FFC00BF40216648FFF788FC0028F9D020
:103C5000022C0DD3285DFF280AD155216048FFF7BB
:103C60000FFC00BF40215E48FFF778FC0028F9D028
:103C7000641CB442E1D33046DCE70000540100206C
:103C80004576743A204556454E545F576173682017
:103C90002564200A000000000977617368206D6FB9
:103CA0006465206F6E090A00000000207761736868
:103CB000206D6F646520656C73652D2D2D2D2D2D68
:103CC0002D0A00004576743A204556454E545F440F
:103CD0007279202564200A00447279206D6F646532
:103CE000206F6E200A00000001000020447279203D
:103CF0006D6F646520656C7365200A004576743AC3
:103D0000204556454E545F576173684472792025AB
:103D100064200A0057617368447279206D6F64658E
:103D2000206F6E200A0000000200002057617368B7
:103D3000447279206D6F646520656C7365200A009C
:103D40004576743A4556454E545F576173685469D9
:103D50006D652025640A00004C0100204576743A08
:103D60004556454E545F44727954696D652025640B
:103D70000A0000004576743A4556454E545F576137
:103D8000736844727954696D652025640A000000E7
:103D9000525353492025640A000000005452414EFA
:103DA00053504152454E545F44415441200A000053
:103DB000574946495F4E5450203A205B25642D25D3
:103DC000642D256420253032643A253032643A254A
:103DD0003032645D5B25645D200A00003401002000
:103DE0000048004010B504461CB9F9A002F04CFA96
:103DF00010BDE0686060E068A06000BFF8E710B543
:103E000004461CB9F2A002F03FFA10BD0020E060A9
:103E10006060A060206000BFF7E710B504462CB9D1
:103E2000EBA002F031FA4FF0FF3010BD2068FCE744
:103E300010B504462CB9E6A002F026FA4FF0FF3088
:103E400010BD6068A168884201D10020F8E7606871
:103E5000A168884203D2A0686168401AF0E7204652
:103E6000FFF7DBFF6168A268891A401AE8E770B5BE
:103E700004462CB9D6A002F007FA4FF0FF3070BD0F
:103E80002046FFF7CAFF05462046FFF7D1FF281A54
:103E9000F5E72DE9F04104460F46164600252CB9FA
:103EA000CBA002F0F1F9681EBDE8F0812FB9CFA0D8
:103EB00002F0EAF94FF0FF30F6E76068A168884247
:103EC00014D22046FFF7B4FFB04201D9304602E0D9
:103ED0002046FFF7ADFF054661682A46384602F0E6
:103EE000DFFA6068284460602846DDE72046FFF777
:103EF00094FF6168E268891A401AB0420AD93546CF
:103F000061682A46384602F0CBFA6068284460604F
:103F10002846C9E72046FFF780FF6168E268891AF2
:103F2000451A61682A46384602F0BAFAE0686060CD
:103F3000721B79192046FFF7ACFF05442846B3E70A
:103F40002DE9F04104460F46154600262CB9AEA0D7
:103F500002F09AF9701EBDE8F0812FB9B0A002F00E
:103F600093F94FF0FF30F6E72046FFF780FFA842B5
:103F70000AD82046FFF77BFF80464146AEA002F0FC
:103F800083F94FF0FF30E6E76068A16888422AD8DD
:103F90002046FFF742FFA168E268891A461AB54237
:103FA00013D8A0682A46394602F07AFAA068284455
:103FB000A0602046FFF731FFE1680844A16888420D
:103FC00001D1E068A0602846C5E7A06832463946BE
:103FD00002F066FAE068A060AA1BB9192046FFF754
:103FE000AFFF3044B7E7A0682A46394602F058FAD6
:103FF000A0682844A0602846ADE770B504460D4689
:10400000002624B992A002F03FF9701E70BD2A4626
:1040100021469848FFF794FF0646AE4205D096A089
:1040200002F032F94FF0FF30F0E73046EEE72DE9CD
:10403000F04104460D460027002604B135B9294653
:1040400094A002F021F90020BDE8F081022603E0EF
:10405000A05D3844C7B2761C681EB042F8D8384616
:10406000F2E701B581B0694601AA5078087010786E
:104070004870BDF800000CBD0146080601F47F42FF
:1040800040EA022001F47F0240EA122040EA116077
:1040900070472DE9F04104460E4600250027A8464A
:1040A0002CB98AA002F0F0F8681EBDE8F081002566
:1040B0000AE0675D701B401E14F8008004F805805C
:1040C000701B401E27546D1CB5EB560FF1D300201A
:1040D000EBE710B503460020541AB4FBF3F010BD13
:1040E00010B50346002002FB031010BD2DE9F04778
:1040F00004460E46154600273146284603F056F979
:104100008146214602F040FF804603F04FF8074603
:104110003846BDE8F0872DE9F04704460E461546BF
:104120000027284603F062F88146214603F072F822
:104130008046314602F0BAFE07463846BDE8F087B1
:10414000024612B102F0070028B9082901D8002060
:1041500070470120FCE702F00700C0F10800884228
:1041600001D30020F4E70120F2E710B504462CB992
:1041700061A002F089F84FF0FF3010BD00202060F0
:104180006060FF20207060700020F6E770B5044684
:104190000D462CB922A002F077F84FF0FF3070BD29
:1041A00040F2BE315F4802F014FA2A4621465D48CB
:1041B000801C02F075F95C48A0F8305B012180F8A2
:1041C0007917FFF722FD5849C1F8320B0020E6E7C6
:1041D0004552524F523A20696E70757420726220B7
:1041E0006973204E554C4C0A000000004552524F56
:1041F000523A20696E70757420646174612069732D
:10420000204E554C4C0A00004552524F523A2072F3
:104210006220697320656D707479200A00000000C7
:104220004552524F523A206461746120697320658F
:104230006D707479200A00004552524F523A206E38
:104240006F206D656D6F7279202564200A00000073
:104250004552524F523A2067697A507574446174DE
:10426000612062756620697320656D707479200A1B
:1042700000000000CC0E00204552524F523A20461A
:1042800061696C656420746F20726257726974652D
:10429000200A00004552524F523A2067697A507204
:1042A0006F746F636F6C53756D202C206275662080
:1042B000697320656D707479206F72206C656E2053
:1042C0006572726F72202564200A000067697A4265
:1042D0007974654F7264657245786368616E67656D
:1042E000204572726F72202C20496C6C6567616C7E
:1042F00020506172616D0A004552524F523A206758
:10430000697A50726F746F636F6C48656164496E4F
:104310006974206865616420697320656D707479C3
:10432000200A0000780A0020000300202DE9FC5F2D
:1043300005460C46164699460C9F4FF0000AD34698
:10434000002001908046B9F1000F00D037B9FDA0E0
:1043500001F09AFF4FF0FF30BDE8FC9F3A46494616
:10436000684602F09DF8012F0CD939466846FFF7E0
:1043700090FEB0F1FF3F05D1FEA001F085FF4FF0A8
:10438000FF30E9E731462046FFF7DAFE8246BAF110
:10439000000F0CD11DF8050004F007010841C6F11B
:1043A0000802FF211141084040EA080821E0BAF163
:1043B000010F1ED1681C1DF8000004F00701C1F1B7
:1043C0000801711AC1F10802FF21114100EA010B35
:1043D0001DF8050004F007010841019004F00700F2
:1043E000C0F108010BFA01F040EA0808019848EA18
:1043F00000084046B0E72DE9F05F05460E469046BE
:104400001C460A9F4FF0000AD346D14634B9E6A0B5
:1044100001F03AFF4FF0FF30BDE8F09F41463046D3
:10442000FFF78EFE8146B9F1000F07D1605D06F0FF
:10443000070107FA01F1084360551EE0B9F1010FC9
:104440001BD1F8B206F00701C1F1080140FA01FAE8
:1044500006F00700C0F10801FF20084100EA070B41
:10446000681C205C40EA0A00691C6054605D06F02C
:1044700007010BFA01F1084360550020CCE701B5B4
:1044800081B000200090694601AA50780870107829
:104490004870BDF800000CBDF8B505460C46164640
:1044A0000DB104B12EB9CAA001F0EEFE4FF0FF30FD
:1044B000F8BD287800F0010098B110212278601C26
:1044C00081542078401C207001206B1C0246002182
:1044D00000900846FFF72AFF08B1012000E0002005
:1044E00030702878C0F3400098B111212278601C08
:1044F00081542078401C207001206B1C024601462C
:1045000000900020FFF712FF08B1012000E000201A
:1045100070702878C0F3800098B112212278601C56
:1045200081542078401C207001206B1C024602211F
:1045300000900020FFF7FAFE08B1012000E0002003
:10454000B0702878C0F3C00088B113212278601CB5
:1045500081542078401C20706888FFF790FF074640
:104560003A4600210120FFF7BBFDC6F8030028787A
:10457000C0F3001088B114212278601C8154207887
:10458000401C2070A888FFF77AFF07463A460021B2
:104590000120FFF7A5FDC6F807002878C0F34010FA
:1045A00088B115212278601C81542078401C20702D
:1045B000E888FFF764FF07463A4600210120FFF72D
:1045C0008FFDC6F80B00002072E770B504460D465B
:1045D000002604B12DB989A001F056FE4FF0FF303E
:1045E00070BD28782178884203D08EA001F04CFE5F
:1045F000012668786178884203D08FA001F044FEDC
:104600000126A878A178884203D090A001F03CFE52
:104610000126D5F80300D4F80310884203D091A0F6
:1046200001F032FE0126D5F80700D4F807108842C1
:1046300003D092A001F028FE0126D5F80B00D4F893
:104640000B10884203D093A001F01EFE0126D5F87E
:104650000F00D4F80F10884210D0FFF7D6FA944913
:104660000968401A41F27071884207D391A001F0A5
:104670000BFEFFF7CAFA8E4908600126D4F8131022
:10468000D5F8130002F042FD10D0FFF7BEFA8849BA
:104690000968401A41F27071884207D38AA001F07C
:1046A000F3FDFFF7B2FA824908600126D4F817102B
:1046B000D5F8170002F02AFD10D0FFF7A6FA7C49C2
:1046C0000968401A41F27071884207D383A001F053
:1046D000DBFDFFF79AFA76490860012630467FE74E
:1046E000F8B504460D4604B12DB981A001F0CCFD0A
:1046F0004FF0FF30F8BD00202870E41C14F8030CC4
:104700002B460122002100900846FFF774FE14F8A2
:10471000020C2B460122114600900020FFF76BFE91
:1047200014F8010C2B460122022100900020FFF713
:1047300062FE01212846FFF7ACFCE2686FF06D01D4
:104740000120EDE067697A4465636F6D707265738F
:1047500073696F6E56616C7565204572726F722059
:104760002C20496C6C6567616C20506172616D0A28
:104770000000000067697A4465636F6D707265734D
:1047800073696F6E56616C75652067697A427974DA
:10479000654F7264657245786368616E6765204530
:1047A00072726F72200A000067697A436F6D7072CF
:1047B00065737356616C7565204572726F72202C3B
:1047C00020496C6C6567616C20506172616D0A00F4
:1047D00067697A44617461506F696E7432457665B9
:1047E0006E74204572726F72202C20496C6C656764
:1047F000616C20506172616D0A00000067697A4344
:104800006865636B5265706F7274204572726F7267
:10481000202C20496C6C6567616C20506172616D61
:104820000A00000076616C75655761736820436803
:10483000616E6765640A000076616C756544727923
:10484000204368616E6765640A00000076616C75DC
:104850006557617368447279204368616E67656467
:104860000A00000076616C75655761736854696D64
:1048700065204368616E6765640A000076616C7547
:104880006544727954696D65204368616E6765643B
:104890000A00000076616C7565576173684472792F
:1048A00054696D65204368616E6765640A000000A5
:1048B0003801002076616C7565507265732043681D
:1048C000616E6765640A000076616C756554656D9C
:1048D00070204368616E6765640A000076616C75DC
:1048E0006548756D69204368616E6765640A0000FC
:1048F00067697A44617461506F696E74733252658E
:10490000706F727444617461204572726F72202CF2
:1049100020496C6C6567616C20506172616D0A00A2
:10492000FFF7D7FBE871226800210120FFF7D1FBD8
:1049300086B23046FFF7A3FDA5F8010062680021AA
:104940000120FFF7C6FB86B23046FFF798FDA5F8B9
:104950000300A26800210120FFF7BBFB86B23046AE
:10496000FFF78DFDA5F805002269FE49FE48FFF717
:10497000BDFB86B23046FFF782FD28816269E41EE6
:104980000021F948FFF7B2FB86B23046FFF777FD0A
:1049900068810020AEE62DE9F04704460E46174632
:1049A0001D46A0464FF0000998F808900CB107B1D9
:1049B00035B9EEA001F068FC4FF0FF30BDE8F0879C
:1049C0001721F64801F0E3FDB9F1010F06D0B9F166
:1049D000020F11D0B9F1050F44D123E0EF4A45325F
:1049E000EE4904F10900FFF757FD0120EC4908707A
:1049F00000270020286036E0E8497B31A1F11B0048
:104A0000FFF76EFE50B9E5487B30016839604168B8
:104A100079608068B8600C20286002E04FF0FF30B9
:104A2000CCE720E0A6F10A0204F10901DD4801F01B
:104A300037FDA6F10A00DA49C1F870070F21D848FE
:104A400090F8362B00F637308154D54890F8360B65
:104A5000401CD34981F8360B032008700027002042
:104A6000286000E000BF00BF0020A7E72DE9F04765
:104A70008AB00446884616460027BA46B9462546F7
:104A800014B1B8F1000F07D1C7A001F0FDFB4FF042
:104A9000FF300AB0BDE8F087D6B901A8FFF765FB83
:104AA0002079401CC0B28DF8080060798DF80900AB
:104AB0000520FFF7D6FAADF80600092101A8FFF797
:104AC000B6FA8DF80C000DF1040A4FF0090925E043
:104AD00004A8FFF74AFB2879401CC0B28DF81400E7
:104AE00068798DF81500B11D88B2FFF7BAFAADF8F4
:104AF0001200287A401CC0B28DF818003246414698
:104B00000DF1190001F0CCFC162104A8FFF78FFA73
:104B10008DF825000DF1100A4FF016094946504650
:104B2000FFF782F80746002F04DA4A463946AA48BA
:104B300001F0AAFB3846ACE7F0B587B005460E4653
:104B4000174600242EB9A5A001F09EFB601E07B0F9
:104B5000F0BD01A8FFF709FB05208DF8080090487B
:104B600090F87417D0F87407401C8D4AC2F8740787
:104B7000C8B28DF809008DF80C501220FFF771FAB9
:104B8000ADF806003A4631460DF10D0001F088FC03
:104B9000162101A8FFF74BFA8DF81900162101A87C
:104BA000FFF742F80446002C03DA214695A001F0F5
:104BB0006BFB162101A8FFF7E9FA2046C7E710B5FD
:104BC0000446764960312046FFF7FFFC012814D1E6
:104BD00094A001F059FB71497B312046FFF780FD1D
:104BE00028B90C226D497B310420FFF7A5FF1B2259
:104BF00021466A48603001F053FCFFF706F88F4900
:104C000090FBF1F201FB1200A0B98DA001F03CFB7A
:104C100062497B312046FFF763FD28B90C225F49CA
:104C20007B310420FFF788FF1B2221465B48603060
:104C300001F036FC10BD2DE9FE4F80460E461746AA
:104C40004FF0000B0020029081468246002534463A
:104C50000090B8F1000F01D006B137B97EA001F085
:104C600013FB4FF0FF30BDE8FE8F4046FFF7E0F842
:104C700000F0FF0ABAF1000F02D14FF0FF30F2E767
:104C80004FF000095DE0012201A94046FFF701F95C
:104C90008346BBF1000F52D07B480078FF281FD11C
:104CA0009DF80400FF281BD17848007848B9FF2000
:104CB00020706070022076490880012073490870D6
:104CC00034E073480088042830DD71480088A84229
:104CD0002CD0FF202070607002206D49088025E0F4
:104CE00069480078FF2803D19DF8040055281DD09D
:104CF00066480078012819D19DF8040064490988A4
:104D0000605463480088401C614908800846008858
:104D100004280BDD0094009C6088FFF7A2F9001DB9
:104D200085B25B480088A84200D10CE09DF80400E1
:104D30005549087057480078401C5649087009F1D9
:104D40000109D1459FDB00BF51480088042807DDD9
:104D50004F480088A84203D14D48018820469BE077
:104D6000B7E000000000A0C0CDCCCC3D67697A5010
:104D7000726F746F636F6C49737375656450726F93
:104D800063657373204572726F72202C20496C6CBE
:104D90006567616C20506172616D0A00360E0020FB
:104DA00000030020B706002067697A50726F746FA5
:104DB000636F6C4973737565644461746141636BBF
:104DC000204572726F72202C20496C6C6567616C93
:104DD00020506172616D0A00A874000867697A52F8
:104DE00065706F727444617461204572726F7220D5
:104DF0002C20496C6C6567616C20506172616D0A92
:104E0000000000004552524F523A207561727420E2
:104E10007772697465206572726F72202564200A4A
:104E2000000000006368616E6765642C2072657025
:104E30006F727420646174610A000000C027090069
:104E4000496E666F3A2036303053207265706F724B
:104E50007420646174610A0067697A50726F746FBC
:104E6000636F6C4765744F6E655061636B6574204A
:104E70004572726F72202C20496C6C6567616C20E2
:104E8000506172616D0A0000400100203C01002069
:104E90003E01002041010020FFF7C9F80290FE48C2
:104EA0000088401E215C029881420FD12A4621468B
:104EB000304601F0F5FA3D800020F8490870F649C7
:104EC0000880F7490870F7490870CCE66FF00100D8
:104ED000C9E60120C7E610B50024F34890F8790729
:104EE00000B910BDF1A001F0CFF9EF48B0F8301BC8
:104EF00000F27A70FEF798FE0446EB48B0F8300BEB
:104F0000A04202D0F1A001F0BFF9FEF77EFEE64913
:104F1000C1F8320B00BFE4E770B50446F24D34B976
:104F2000AFF6045001F0B0F94FF0FF3070BD2879B2
:104F3000401C2179884205D140F2BE31EA48801EEA
:104F400001F047FB0020F1E73EB50446002524B9F7
:104F5000E6A001F099F9681E3EBD206800906068E7
:104F600001909DF80400401CC0B28DF8040005209B
:104F7000FFF777F8ADF8020009216846FFF757F808
:104F80008DF8080009216846FEF74EFE0546002D03
:104F900004DA2946AFF2941001F076F92846DBE7EF
:104FA00010B5C14890F87907012829D1BE4890F87A
:104FB000780702281EDAFEF728FEBB49D1F8321B1B
:104FC000401AB0F5FA6F1BD9FEF71FFE0446B6482B
:104FD00090F87837D0F8322B2146CFA001F054F961
:104FE000FFF779FFB04890F87807401CAE4981F888
:104FF000780705E040F2BE31BB48801E01F0E9FAB7
:1050000010BD30B59DB0044600252CB9CCA001F0F0
:105010003BF9681E1DB030BD6846FFF7A6F80220B8
:105020008DF8040060798DF80500D1A103C9CDE9A0
:105030000201D2A103C9CDE90401D3A103C9CDE97D
:105040000801D4A103C9CDE906012022D4A10AA8F0
:1050500001F06BFA2022DBA10DF1520001F020FAE1
:105060000020CDF84A00CDF84E009DF851008DF893
:1050700051009DF8510040F002018DF851100020C0
:10508000FEF7EFFFADF848006F20FEF7EAFFADF83E
:10509000020073216846FEF7CAFF8DF87200732183
:1050A0006846FEF7C1FD0546002D04DA2946AFF239
:1050B000AC2001F0E9F82846ACE7FEB504460E4600
:1050C000002524B9C8A001F0DFF8681EFEBD6846BF
:1050D000FFF74BF812208DF8040060798DF8050079
:1050E0000620FEF7BEFFADF802008DF808600A2129
:1050F0006846FEF79CFF8DF809000A216846FEF716
:1051000093FD0546002D04DA2946AFF2083001F080
:10511000BBF82846DAE770B504460026254624B9D0
:10512000BCA001F0B1F8701E70BDC048A968016054
:10513000E9684160298A0181A97C81725A49B1F8E4
:10514000BE0BFEF78EFF5849A1F8BE0BD1F8C50B78
:10515000FEF792FF5449C1F8C50B0E21524890F852
:10516000642B00F6653081544F4890F8640B401C66
:105170004D4981F8640B042008700020D4E710B575
:10518000FEF743FD044600BFFEF73FFD001BB0F5F0
:10519000167FF9D9FEF732FD10BD10B504462CB9C3
:1051A000A3A001F071F84FF0FF3010BD2089FEF789
:1051B00058FF2081AA480078C0F38000217AC1F30B
:1051C000800188425AD0207AC0F3800000282BD07A
:1051D000207A00F0010080B10021334890F84D2B77
:1051E00000F64E308154304890F84D0B401C2E494B
:1051F00081F84D0B9BA001F047F8207AC0F34000E6
:1052000000283BD00121284890F84D2B00F64E3065
:105210008154254890F84D0B401C234981F84D0BD3
:1052200098A001F031F829E0207A00F0010080B167
:1052300000211D4890F84D2B00F64E3081541A483D
:1052400090F84D0B401C184981F84D0B85A001F0DA
:105250001BF8207AC0F3400080B10221124890F878
:105260004D2B00F64E3081540F4890F84D0B401CEA
:105270000D4981F84D0B8AA001F006F878480078B6
:10528000C0F3C000217AC1F3C001884202D0207A65
:10529000C10813E13FE100003E0100203C01002075
:1052A0004101002040010020000300205761726E80
:1052B000696E673A2074696D656F75742C2072652C
:1052C00073656E642064617461200A004552524F18
:1052D000523A20726573656E642064617461206562
:1052E00072726F720A0000007A0A00204552524F13
:1052F000523A2067697A50726F746F636F6C436FB4
:105300006D6D6F6E41636B20646174612069732001
:10531000656D707479200A005761726E696E673A24
:1053200067697A50726F746F636F6C526573656EE4
:1053300064446174612025642025642025640A008A
:1053400067697A50726F746F636F6C4765744465F8
:1053500076696365496E666F204572726F72202CA4
:1053600020496C6C6567616C20506172616D0A0048
:1053700030303030303030340000000030303030E9
:1053800030303032000000003033303130313031D5
:105390000000000030333031303130300000000088
:1053A0003636316563323433303833313432656602
:1053B00062616264306337633835366362386535FD
:1053C000000000006363363262353032396566337F
:1053D000346436313831343665666665306266303D
:1053E000656263650000000067697A50726F746FD0
:1053F000636F6C4572726F72436D64204572726F99
:1054000072202C20496C6C6567616C205061726160
:105410006D0A00004552524F523A204E54502069B6
:105420007320656D707479200A000000BE0E0020A4
:1054300067697A50726F746F636F6C4D6F64756CCF
:1054400065537461747573204572726F72202C20DD
:10545000496C6C6567616C20506172616D0A000077
:10546000420100204F6E426F617264696E673A209C
:10547000536F66744150206F7220576562206D6FC4
:1054800064650A004F6E426F617264696E673A200C
:105490004169724C696E6B206D6F64650A00000093
:1054A0004F6E426F617264696E673A205374617423
:1054B000696F6E206D6F64650A000000FE48008809
:1054C00061F3C300FC490880207AC0F3C00088B1B2
:1054D0000321FA4890F84D2B00F64E308154F748DE
:1054E00090F84D0B401CF54981F84D0BF4A000F0ED
:1054F000CBFE10E00421F14890F84D2B00F64E3021
:105500008154EE4890F84D0B401CEC4981F84D0B4E
:10551000F3A000F0B9FEE8480078C0F30010217A4B
:10552000C1F3001188422ED0207A0109E248008898
:1055300061F30410E0490880207AC0F3001088B1BC
:105540000521DE4890F84D2B00F64E308154DB48A3
:1055500090F84D0B401CD94981F84D0BE8A000F0A4
:1055600093FE10E00621D54890F84D2B00F64E3002
:105570008154D24890F84D0B401CD04981F84D0B16
:10558000E7A000F081FECC480078C0F34010217AFB
:10559000C1F3401188422ED0207A4109C6480088C4
:1055A00061F34510C4490880207AC0F3401088B1E7
:1055B0000721C24890F84D2B00F64E308154BF4869
:1055C00090F84D0B401CBD4981F84D0BDDA000F05B
:1055D0005BFE10E00821B94890F84D2B00F64E30E4
:1055E0008154B64890F84D0B401CB44981F84D0BDE
:1055F000DBA000F049FEB0480088C0F3C02021893C
:10560000C1F3C02188422ED02089C10AAA4800884F
:1056100061F3CB20A84908802089C0F3C02088B15D
:105620000B21A64890F84D2B00F64E308154A3482C
:1056300090F84D0B401CA14981F84D0BD0A000F013
:1056400023FE10E00C219D4890F84D2B00F64E30C3
:1056500081549A4890F84D0B401C984981F84D0BA5
:10566000CEA000F011FE94480088C0F300302189DC
:10567000C1F3003188422ED02089010B8E4800886A
:1056800061F30C308C4908802089C0F3003088B168
:1056900009218A4890F84D2B00F64E3081548748F6
:1056A00090F84D0B401C854981F84D0BC3A000F0CC
:1056B000EBFD10E00A21814890F84D2B00F64E30AA
:1056C00081547E4890F84D0B401C7C4981F84D0B6D
:1056D000C1A000F0D9FD0D21784890F84D2B00F6BF
:1056E0004E308154754890F84D0B401C734981F839
:1056F0004D0B2089C0F3022081F8BD0B084690F8BD
:10570000BD1BBCA000F0C0FD02206C490870002049
:105710004BE510B540F26C70BA490860BA48C860F1
:105720000846FEF75FFB40F6CC31644800F051FFBD
:1057300010BD30B587B005460024052D7ED2DFE8C8
:1057400005F003316193B90001A8FEF70EFD0B20AF
:105750008DF80800594890F87417D0F87407401C69
:10576000564AC2F87407C8B28DF809000520FEF742
:1057700078FCADF80600092101A8FEF758FC8DF869
:105780000C00092101A8FEF74FFA0446002C04DAA8
:105790002146AFF6901000F077FD092101A8FEF731
:1057A000F5FC6EE104A8FEF7E0FC09208DF814007A
:1057B000424890F87417D0F87407401C3F4AC2F86A
:1057C0007407C8B28DF815008DF818500620FEF742
:1057D00048FCADF812000A2104A8FEF728FC8DF859
:1057E00019000A2104A8FEF71FFA0446002C04DA67
:1057F0002146AFF6F01000F047FD0A2104A8FEF79D
:10580000C5FC3EE104A8FEF7B0FC09208DF81400A9
:105810002A4890F87417D0F87407401C274AC2F839
:105820007407C8B28DF815008DF818500620FEF7E1
:1058300018FCADF812000A2104A800E01DE1FEF7F3
:10584000F6FB8DF819000A2104A8FEF7EDF90446CD
:10585000002C04DA2146AFF6542000F015FD0A2191
:1058600004A8FEF793FC0CE101A8FEF77EFC1320D0
:105870008DF80800114890F87417D0F87407401C90
:105880000E4AC2F87407C8B28DF809000520FEF769
:10589000E8FBADF80600092101A8FEF7C8FB8DF86A
:1058A0000C00092101A8FEF7BFF90446002C02DA1A
:1058B0002146ABE0B3E0ADE0420100200003002050
:1058C00057694669207374617475733A20696E2054
:1058D00062696E64696E67206D6F64650A0000001E
:1058E00057694669207374617475733A206F7574D3
:1058F0002062696E64696E67206D6F64650A0000DE
:1059000057694669207374617475733A20636F6ECA
:105910006E656374656420726F757465720A000049
:1059200057694669207374617475733A20646973AA
:10593000636F6E6E656374656420726F75746572F3
:105940000A00000057694669207374617475733AE0
:1059500020636F6E6E6563746564206D326D0A003E
:1059600057694669207374617475733A206469736A
:10597000636F6E6E6563746564206D326D0A00003E
:1059800057694669207374617475733A2061707049
:1059900020636F6E6E6563740A0000005769466984
:1059A000207374617475733A206E6F20617070207B
:1059B000636F6E6E6563740A000000005769466984
:1059C000207374617475733A20696E207465737402
:1059D000206D6F64650A0000576946692073746121
:1059E0007475733A206F75742074657374206D6FCD
:1059F00064650A0052535349206973202564200AC4
:105A000000000000CC0E0020DC0E0020AFF60C40A1
:105A100000F03AFC092101A8FEF7B8FB31E001A82B
:105A2000FEF7A3FB15208DF80800CD4890F87417F9
:105A3000D0F87407401CCA4AC2F87407C8B28DF87F
:105A400009000520FEF70DFBADF80600092101A8AD
:105A5000FEF7EDFA8DF80C00092101A8FEF7E4F835
:105A60000446002C04DA2146AFF6684000F00CFC36
:105A7000092101A8FEF78AFB03E0BAA000F004FCAC
:105A800000BF00BF204607B030BD3EB500246846C9
:105A9000FEF76BFB17208DF80400B14890F87417DF
:105AA000D0F87407401CAE4AC2F87407C8B28DF82B
:105AB00005000520FEF7D5FAADF802000921684679
:105AC000FEF7B5FA8DF8080009216846FEF7ACF834
:105AD0000446002C03DA2146A8A000F0D5FB0921DA
