:020000040800F2
:1000000080280020D9190008BD030008BF0300089C
:10001000C3030008C7030008CB030008000000006A
:10002000000000000000000000000000CF030008F6
:10003000D103000800000000D3030008D503000826
:10004000F3190008F3190008F3190008F319000860
:10005000F3190008F3190008F3190008F319000850
:10006000F3190008F3190008F3190008F319000840
:10007000F3190008F3190008F3190008F319000830
:10008000F3190008F3190008F3190008F319000820
:10009000F3190008F3190008F3190008F319000810
:1000A000F3190008F3190008F3190008F319000800
:1000B000F31900086B070008C10E0008F3190008C7
:1000C000F3190008F3190008F3190008F3190008E0
:1000D000F31900084D190008551700088907000892
:1000E000F3190008F3190008F3190008F3190008C0
:1000F000F3190008F3190008F3190008F3190008B0
:10010000F3190008F31900085B100008F319000840
:10011000F3190008F3190008F3190008F31900088F
:10012000F3190008F3190008F3190008F31900087F
:1001300000F002F800F05FF80AA090E8000C82449A
:100140008344AAF10107DA4501D100F054F8AFF277
:10015000090EBAE80F0013F0010F18BFFB1A43F0A5
:100160000103184730730000507300000A444FF039
:10017000000C10F8013B13F0070408BF10F8014B06
:100180001D1108BF10F8015B641E05D010F8016B4B
:10019000641E01F8016BF9D113F0080F1EBF10F8AF
:1001A000014BAD1C0C1B09D16D1E58BF01F801CBD2
:1001B000FAD505E014F8016B01F8016B6D1EF9D555
:1001C0009142D6D37047000000230024002500266A
:1001D000103A28BF78C1FBD8520728BF30C148BFAA
:1001E0000B607047642905F0F187002070471FB548
:1001F0001FBD10B510BD06F00DFA1146FFF7F7FF51
:1002000000F04EF806F02BFA03B4FFF7F2FF03BC40
:1002100001F042FB10B541F61F41092000F078FAC9
:100220004FF4165000F0C1FA1B21484806F01DF9A2
:1002300005F097F910BD10B54548007808B10120C8
:1002400000E00020414908704248007808B10120D0
:1002500000E000203D4948703F48007808B1012087
:1002600000E00020394988703C48006806F0F0FE44
:100270003649C1F80F003A480068C1F81300394800
:100280000068C1F8170038480068C1F80300374813
:100290000068C1F8070036480068C1F80B0010BDBF
:1002A00001F090FA4FF4A06001F0B6FB00F0F0FA14
:1002B00000F018FD4FF4E13000F032FF00F0CCFC0C
:1002C00041F61F41632000F0CFFD4FF4E13001F013
:1002D000F1FA00F071F900F09DF900F0BDFAFFF7B6
:1002E00099FF41F61F4142F20F7000F089FE21A0F4
:1002F00005F038FF2AA005F035FF26E01448007805
:1003000048B12B4801F0C1F805F0D3FD01F0A4F885
:1003100000200F4908700F48007848B1254801F0C7
:10032000B4F805F0FFFC01F097F8002009490870C7
:100330000948007848B1204801F0A7F805F029FEE7
:1003400001F08AF8002004490870D7E72C0100204A
:10035000000000200100002002000020E00000203A
:10036000D8000020DC000020E4000020E80000208D
:10037000EC0000202D2D2D2D2D2D2D2DBBFAD6C7B7
:10038000D4C6494F542D56616375756D57617368B6
:1003900065722D2D2D2D2D2D2D2D2D2D0D0A0000AD
:1003A000496E6974204F7665720D0A0D0A000000CF
:1003B0001A0000202100002028000020704700BF04
:1003C000FEE700BFFEE700BFFEE700BFFEE77047A5
:1003D00070477047704700000CB5002001900090F6
:1003E0006C48006840F480306A49086000BF694882
:1003F000006800F4003000900198401C01900098C3
:1004000018B90198B0F5A06FF1D16248006800F406
:10041000003010B10120009001E000200090009811
:10042000012843D15C48006840F010005A49086038
:100430000846006820F0030008600846006840F0A5
:1004400002000860534840685249486008464068C6
:1004500048600846406840F480604860084640684C
:1004600020F47C1048600846406840F4E81048607A
:100470000846006840F08070086000BF454800688A
:1004800000F000700028F9D04248406820F00300D6
:10049000404948600846406840F00200486000BF9C
:1004A0003C48406800F00C000828F9D10CBD10B59C
:1004B000FFF792FF10BD10B53648006840F001000C
:1004C000344908600846406834490840314948606A
:1004D00008460068324908402E490860084600680E
:1004E00020F4802008600846406820F4FE00486040
:1004F0004FF41F008860FFF7DAFF4FF000602949D2
:10050000086010BD10B5002100200022214B5B685F
:1005100003F00C0121B1042906D0082928D107E0F5
:10052000214B224C236027E01F4B204C236023E00B
:10053000184B5B6803F47010164B5B6803F4803251
:10054000022303EB904022B9194B4343174C23601D
:100550000DE0104B5B6803F4003323B1144B4343AD
:10056000124C236003E0104B4343104C236003E024
:100570000D4B0E4C236000BF00BF064B5B68C3F3FE
:1005800003130C4CE15C094B1B68CB40074C236008
:1005900010BD000000100240002002400000FFF8E3
:1005A000FFFFF6FE08ED00E000127A0004000020D4
:1005B00000093D000800002008B50121502001F08D
:1005C000B5FD0720ADF8000010208DF803000320D2
:1005D0008DF8020069460D4801F0ECFA01210B4844
:1005E00001F095FB0221094801F091FB0421074825
:1005F00001F08DFB2020ADF800006946044801F0B1
:10060000D9FA2021024801F082FB08BD0010014008
:100610000018014008B50121442001F087FD1C208D
:10062000ADF8000048208DF803006946354801F018
:10063000C1FA0120ADF8000028208DF803006946BA
:10064000314801F0B7FA08BD10B5044614B10120D5
:100650002E4908702D480078002837D010212948ED
:1006600001F03BFB78B10821264801F036FB50B180
:100670000421244801F031FB28B10121224801F076
:100680002CFB012822D10A2001F0D9F800201F49B3
:10069000087010211B4801F020FB08B9012010BD93
:1006A0000821184801F019FB08B90220F7E70421D6
:1006B000144801F012FB08B90320F0E701211248A9
:1006C00001F00BFB01281BD10420E8E710210D48A5
:1006D00001F003FB012813D108210A4801F0FDFABB
:1006E00001280DD10421074801F0F7FA012807D1AC
:1006F0000121054801F0F1FA10B901200349087001
:100700000020CCE70018014000080140180000203C
:100710007FB505460C460121022001F014FDADF81D
:100720000850ADF804400020ADF80A00ADF806000E
:1007300001A9144801F032FE01221146114802F0CD
:10074000A4F91D208DF8000000208DF80100032081
:100750008DF8020001208DF80300684601F061F970
:100760000121084802F076F97FBD10B50121054846
:1007700002F039FC28B10121024802F045FC03F0E7
:100780005BF910BD0004004008B540F22551304827
:1007900002F0FEFD40B12E4802F07AFDC0B200909A
:1007A0000121684603F051FB08BD10B586B0044630
:1007B0000121082001F0BAFC0121880401F0C3FCEA
:1007C000234802F025FC4FF48060ADF810000320B0
:1007D0008DF8120018208DF8130004A91D4801F0AF
:1007E000E9F94FF40060ADF8100004208DF8130013
:1007F00004A9184801F0DEF900940020ADF80400C7
:10080000ADF80600ADF80800ADF80C000C20ADF80E
:100810000A0069460E4802F03EFC01210C4802F035
:10082000C6FC012240F22551094802F0CCFC2720E9
:100830008DF8140001208DF8150003208DF81600A6
:1008400001208DF8170005A801F0EBF806B010BDE7
:1008500000480040000C014008B50121082001F0CB
:1008600065FC4FF48070ADF8000010208DF8030097
:1008700003208DF802006946044801F09BF94FF40B
:100880008071024801F045FA08BD0000000C0140EB
:1008900000B587B001214FF4017001F047FC4FF41F
:1008A000004001F0A7FB0220ADF8040000208DF805
:1008B000070001A9424801F07DF9424802F0ACFD71
:1008C000002002908DF80C008DF80D004FF4602090
:1008D00004900020059001208DF8180002A93948E5
:1008E00002F0C1FD0121374802F0E9FD354802F070
:1008F00008FE00BF334802F009FE0028FAD1314853
:1009000002F00EFE00BF2F4802F00FFE0028FAD1C1
:1009100007B000BD10B5044607230122214629482F
:1009200002F039FE0121274802F009FE00BF022132
:10093000244802F075FF0028F9D0224802F092FE08
:1009400010BD2DE9F04107460C460025002608E0C1
:100950003846FFF7DFFF0544052000F070FF701CEC
:10096000C6B2A642F4DBB5FBF4F080B2BDE8F0817C
:100970002DE9F05F82468B4659465046FFF7E1FF6E
:10098000804605F067FF04460D464FF066320E4B79
:100990002046294605F0AEFF04460D464FF066326C
:1009A0000A4B2046294606F0D9F88046084A094BEA
:1009B00005F0A0FF06460F4630463946BDE8F09FD9
:1009C000000801400024014066664A3F66660A400E
:1009D0004E36D964934D3E4008B50121202001F0E8
:1009E000A5FB4FF44040ADF8000003208DF8020055
:1009F00010208DF803006946964801F0DBF84FF4AB
:100A00008041944801F083F94FF40041914801F08E
:100A10007EF908BD08B54FF40040ADF80000032092
:100A20008DF8020010208DF803006946894801F016
:100A3000C1F808BD08B54FF40040ADF800004820EB
:100A40008DF803006946834801F0B4F808BD10B57D
:100A5000FFF7E0FF4FF400417E4801F058F94FF4F2
:100A600080417C4801F053F9052000F0C4FE4FF4AA
:100A70000041784801F04DF9062000F0BCFE4FF42B
:100A80008041744801F045F910BD10B5FFF7C2FF71
:100A90004FF480416F4801F03CF94FF400416D483C
:100AA00001F037F94FF480416A4801F030F906202F
:100AB00000F0A1FE4FF40041664801F028F906203D
:100AC00000F099FE10BD10B54FF48041614801F06F
:100AD00020F9FFF79FFF4FF400415E4801F019F93C
:100AE000022000F088FE4FF480415A4801F00FF9CF
:100AF000052000F080FE4FF48041564801F009F9CE
:100B000010BD10B54FF48041524801F002F9FFF7D3
:100B100081FF4FF400414F4801F0F9F8022000F046
:100B20006AFE4FF480414B4801F0F1F8052000F0D7
:100B300062FE4FF48041474801F0EBF810BD10B55C
:100B40000024FFF777FF4FF40041424801F0DFF83F
:100B5000012000F050FE4FF480413E4801F0D7F8EC
:100B6000012000F048FE07E0601CC4B2FA2C03DD4F
:100B7000FFF78BFF012010BD4FF40041354801F015
:100B8000ACF80028F0D14FF48041324801F0C1F8B0
:100B90000020F0E770B504460025FFF73BFF4FF457
:100BA00080412C4801F0B5F800BF22E004F080003D
:100BB000002805DD4FF40041264801F0A8F804E0C4
:100BC0004FF40041234801F0A4F86006040E4FF4EE
:100BD0008041204801F09BF8022000F00CFE4FF409
:100BE00080411C4801F095F8022000F004FE681CCA
:100BF000C5B2082DDADB70BD70B5054600260024AD
:100C0000FFF718FF00BF1BE04FF48041114801F0CF
:100C100080F8022000F0EFFD4FF480410D4801F014
:100C200076F86006040E4FF400410A4801F055F8CA
:100C300008B1601CC4B2012000F0DDFD701CC6B21A
:100C4000082EE1DB15B9FFF75CFF01E0FFF73BFF82
:100C5000204670BD0014014008B50121202001F09C
:100C600065FAFB20ADF8000010208DF8030003208A
:100C70008DF802006946104800F09CFF01210E48E3
:100C800001F045F802210C4801F041F808210A481A
:100C900001F03DF81021084801F039F820210648FC
:100CA00001F035F84021044801F031F88021024874
:100CB00001F02DF808BD00000014014010B500241B
:100CC000FFF7C5FE8020FFF765FFFFF738FF0446FA
:100CD000FE20FFF75FFFFFF732FF0446FFF7D5FE68
:100CE000204610BD10B5FFF777FEFFF7E7FF04467B
:100CF000204610BD2DE9F04F87B04FF0000AFFF7F6
:100D0000A6FE8020FFF746FFFFF719FF8346F3207A
:100D1000FFF740FFFFF713FF834600BF642000F09A
:100D20008EFDFFF794FE8120FFF734FF0AF10100EA
:100D30001FFA80FAFFF703FF8346BAF57A7F00D1E6
:100D400002E0BBF1000FE9D100BF0120FFF754FF23
:100D500005460120FFF750FF06460020FFF74CFF35
:100D6000FFF793FE46EA052929F00309484606F0F5
:100D7000ABF9019005F0DCFF344A354BCDE90201B7
:100D800005F0B8FD334A344BCDE9040105F0E6FE29
:100D9000074605F079FC0446204607B0BDE8F08F11
:100DA0002DE9F04F87B04FF0000AFFF750FE80208A
:100DB000FFF7F0FEFFF7C3FE8346F520FFF7EAFEDC
:100DC000FFF7BDFE834600BF642000F038FDFFF74B
:100DD0003EFE8120FFF7DEFE0AF101001FFA80FAD5
:100DE000FFF7ADFE8346BAF1640F00D102E0BBF11C
:100DF000000FE9D100BF0120FFF7FEFE05460120EC
:100E0000FFF7FAFE06460020FFF7F6FEFFF73DFE6D
:100E100046EA052929F00309484606F055F90190EC
:100E200005F086FF0D4A0E4BCDE9020105F062FD8B
:100E300000220C4BCDE9040105F090FE074605F0B9
:100E400023FC0446204607B0BDE8F08F619FC6DE54
:100E500007F7653FCDCCCCCCCC6C47407644CF7700
:100E600001405F3F000018407FB505460C46012158
:100E7000042001F068F9ADF80850ADF804400020F6
:100E8000ADF80A00ADF8060001A94E4801F086FA57
:100E9000012211464B4801F0F8FD1E208DF800009C
:100EA00002208DF8010001208DF802008DF803006A
:100EB000684600F0B6FD0121424801F0CBFD7FBD40
:100EC0001CB501213F4802F08EF8002879D001219D
:100ED0003C4802F099F83C480078401C3A490870B8
:100EE00008460078082806DB00200870FFF7A3F901
:100EF000364804F021FD36480078401C344908701B
:100F00000846007814280DDB0020087000F0D2FAA3
:100F100030483149314B324ACDE90010314932482D
:100F200000F0F6FA00F04FFB3049087008460078F0
:100F3000012805D105F010F8284800F0B2F940E08A
:100F40002A480078022801D104F068FF2748007879
:100F5000032807D105F000F804F060FF00202449C1
:100F600008802EE021480078042803D1012021497F
:100F7000087026E01D480078052803D101201E498D
:100F800008701EE019480078062803D101201B498B
:100F9000087016E015480078072807D10020154989
:100FA000087015490870154908700AE00F48007864
:100FB000082800D105E00D480078092800D100E09C
:100FC00000BF1CBD000800402F0000202C010020A5
:100FD00030000020EC000020E8000020E4000020A9
:100FE000E0000020DC000020D800002019000020D4
:100FF0003A00002000000020010000200200002034
:101000007FB505460C460121082001F09CF8ADF89B
:101010000850ADF804400020ADF80A00ADF8060015
:1010200001A9334801F0BAF901221146304801F014
:101030002CFD32208DF8000001208DF801000020E9
:101040008DF8020001208DF80300684600F0E9FCED
:101050000121274801F0FEFC7FBD10B50121244885
:1010600001F0C1FF002841D00121214801F0CCFF4F
:101070002048007850B32048007820B11F480088ED
:10108000401C1E4908801E4800881E490988884265
:1010900005DA1B480088401C1949088016E01A48E8
:1010A00000881A490988884205DA17480088401CD8
:1010B000154908800AE016480088164909888842C0
:1010C00004DA13480088401C11490880124800784F
:1010D00060B10948007820B108480088401C0749E1
:1010E00008800E480088401C0C49088010BD000094
:1010F000000C004022010020020000203A000020E5
:1011000032000020240100203400002026010020AD
:101110003600002028010020200100203800002097
:1011200010B586B004460121480401F00CF80121F5
:10113000042000F0FBFF0420ADF8140003208DF81C
:10114000160018208DF8170005A9FE4800F032FDA2
:101150000820ADF8140004208DF8170005A9F948FF
:1011600000F028FD26208DF8000000208DF80100F9
:101170008DF8020001208DF80300684600F051FC54
:1011800001940020ADF80800ADF80A00ADF80C009D
:10119000ADF810000C20ADF80E0001A9EA4801F0EE
:1011A0007AFF012240F22551E74802F00CF80121B4
:1011B000E54801F0FCFF06B010BD2DE9F0470546FB
:1011C000E249286805F0C8FF824605F041FF86B273
:1011D000F7B24FEA1628DE48C77180F806804FF054
:1011E000080900240DE0DA48015DD74802F04CF808
:1011F00000BF4021D44802F0B5F80128F9D1601CA5
:10120000C4B24C45EFDBBDE8F0872DE9F047054659
:10121000CE49286805F0A0FF824605F019FF86B286
:10122000F7B24FEA1628CB48C77180F806804FF016
:10123000080900240DE0C748015DC34802F024F806
:1012400000BF4021C04802F08DF80128F9D1601C90
:10125000C4B24C45EFDBBDE8F0872DE9F047054609
:10126000286805F0F5FE0646F7B2C6F30728BA4827
:10127000C77180F806804FF0080900240DE0B648D9
:10128000015DB14802F000F800BF4021AE4802F015
:1012900069F80128F9D1601CC4B24C45EFDBBDE808
:1012A000F0872DE9F04705463C21286890FBF1F6D0
:1012B000286890FBF1F201FB120706F0FF08C6F365
:1012C0000729A64880F8078080F8069007F0FF08F5
:1012D000C7F30729A24880F8078080F806904FF0EE
:1012E000080A00240DE09D48015D974801F0CCFFFD
:1012F00000BF4021944802F035F80128F9D1601C64
:10130000C4B25445EFDB012000F099FA00240DE04F
:101310009348015D8C4801F0B7FF00BF40218A4827
:1013200002F020F80128F9D1601CC4B25445EFDB6B
:10133000BDE8F0872DE9F04705463C21286890FB81
:10134000F1F6286890FBF1F201FB120706F0FF08A6
:10135000C6F30729834880F8078080F8069007F0D5
:10136000FF08C7F30729804880F8078080F80690B7
:101370004FF0080A00240DE07A48015D724801F040
:1013800083FF00BF4021704801F0ECFF0128F9D134
:10139000601CC4B25445EFDB012000F050FA002479
:1013A0000DE07148015D684801F06EFF00BF40210B
:1013B000654801F0D7FF0128F9D1601CC4B254453B
:1013C000EFDBBDE8F0872DE9F04705463C212868B2
:1013D00090FBF1F6286890FBF1F201FB120706F092
:1013E000FF08C6F30729614880F8078080F8069057
:1013F00007F0FF08C7F307295D4880F8078080F8E9
:1014000006904FF0080A00240DE05848015D4E4850
:1014100001F03AFF00BF40214B4801F0A3FF012833
:10142000F9D1601CC4B25445EFDB012000F007FA8B
:1014300000240DE04E48015D434801F025FF00BF48
:101440004021414801F08EFF0128F9D1601CC4B24F
:101450005445EFDBBDE8F0877CB546A103C9CDE973
:101460000001072500240DE01DF80410364801F0A6
:101470000BFF00BF4021344801F074FF0128F9D16F
:10148000601CC4B2AC42EFDB7CBD70B505460726DC
:1014900000240CE0295D2C4801F0F6FE00BF40213D
:1014A000294801F05FFF0128F9D1601CC4B2B442A1
:1014B000F0DB70BD70B5FFF71DFC30490860FFF729
:1014C0006FFC2F4908600A210120FFF751FA0446FA
:1014D00005F0DAF82B4908602B4800882B49098869
:1014E00008442B49098808442A490988401A2A498E
:1014F0000988401A29490988401A29490860294859
:10150000008829490860294800882949086070BD79
:101510002DE9F04707460C4615461E46DDE90889C9
:101520003846FFF74AFE2046FFF76FFE2846FFF7D2
:1015300094FE2048007810B13046FFF7B2FE4046D6
:101540003AE0000000080140004400400000204153
:10155000950000209D0000208D000020A5000020A7
:10156000AD000020B5000020BD000020C500002017
:10157000CD000020A55A048003000700D8000020F9
:10158000DC000020E00000202401002026010020D3
:101590002801002032000020340000203600002006
:1015A000E400002038000020E80000203A0000207D
:1015B000EC00002000000020FFF7BCFE4846FFF7CB
:1015C00002FFBDE8F0872DE9F04F0023002400273B
:1015D0009C4698469946002600259A466C48008805
:1015E000C0F30D02002A7AD00020DFF8A4B1ABF8D6
:1015F000000000BF00BF00BF00BF00BF00BF00BFB2
:1016000000BF00BF002163E06248405CDFF888B1A2
:101610001BF801B0584501D1581CC3B25F48405C6B
:10162000DFF874B11BF801B0584501D1601CC4B299
:101630005B48405CDFF860B11BF801B0584501D150
:10164000781CC7B25748405CDFF84CB11BF801B0BA
:10165000584503D10CF1010000F0FF0C5248405CEA
:10166000DFF834B11BF801B0584503D108F101008F
:1016700000F0FF084D48405CDFF81CB11BF801B0DA
:10168000584503D109F1010000F0FF094848405CCA
:10169000DFF804B11BF801B0584501D1701CC6B287
:1016A0004448405CDFF8F0B01BF801B0584501D168
:1016B000681CC5B24048405CDFF8DCB01BF801B0E4
:1016C000584503D10AF1010000F0FF0A481C81B21D
:1016D000914299DB934203D10120BDE8F08F35E0C0
:1016E000944201D10220F8E7974201D10320F4E7A8
:1016F000944501D10420F0E7904501D10520ECE7A5
:10170000914501D10620E8E7964201D10720E4E7A0
:10171000A81C904213D12048007ADFF87CB09BF8D7
:1017200007B000EB8B00C0EB00104FF6FF7B0BEA1D
:101730008000DFF888B0ABF800000820CDE79245C4
:1017400001D10920C9E70020024601E00020C4E7DA
:1017500000BFC2E710B540F22551194801F018FE4C
:10176000A0B1174801F094FDC4B209480088C0F345
:101770000D0009490C5406480088401C04490880A3
:1017800008460088C72801DD0020088010BD000041
:101790003C0000203E0000204701002047000020C0
:1017A0005000002059000020620000206B00002043
:1017B000740000207D00002084000020260100200D
:1017C0000044004010B56FF0040000F074F92E489A
:1017D00000682E49B0FBF1F02D49087008460078EA
:1017E00000EB4001C1EBC0104FF6FF7101EAC000F1
:1017F0002849088010BD0146254A12784A434FF017
:10180000E0235A6100229A611A46126942F00102ED
:101810001A6100BF4FF0E022106900F001021AB116
:1018200000F48032002AF5D04FF0E022126922F055
:1018300001024FF0E0231A6100229A6170470146CD
:10184000144A12884A434FF0E0235A6100229A61F9
:101850001A46126942F001021A6100BF4FF0E022FD
:10186000106900F001021AB100F48032002AF5D0AC
:101870004FF0E022126922F001024FF0E0231A61DA
:1018800000229A61704700000400002000127A00D4
:10189000F0000020F200002000BF704700BF4A4A5D
:1018A000128802F04002002AF9D0C2B2464B1B1D3A
:1018B0001A80704710B586B00446012144F2040036
:1018C00000F034FC4FF40070ADF8140003208DF8E4
:1018D000160018208DF8170005A93C4800F06AF999
:1018E0004FF48060ADF8140004208DF8170005A9AE
:1018F000364800F05FF925208DF8000003208DF8B0
:1019000001008DF8020001208DF80300684600F008
:1019100088F801940020ADF80800ADF80A00ADF891
:101920000C00ADF810000C20ADF80E0001A92648FF
:1019300001F0B1FB012240F22551234801F043FCA4
:101940000121214801F033FC06B010BD10B540F272
:1019500025511D4801F01CFD10B31B4801F098FCF7
:10196000C4B21B48008800F40040C8B91848008879
:1019700000F4804060B10A2C03D000201449088094
:1019800020E01348008840F400401149088019E025
:101990000D2C06D10E48008840F480400C49088088
:1019A00010E00B480088C0F30D000A490C540848A9
:1019B0000088401C0649088008460088C72801DDC9
:1019C0000020088010BD00000038014000080140E0
:1019D000F80000200F02002009488047094800470E
:1019E000FEE7FEE7FEE7FEE7FEE7FEE7FEE7FEE7CF
:1019F000FEE7FEE704480549054A064B704700002C
:101A0000B70400083101000880160020802800205B
:101A1000801800208018002031490143314A1160AC
:101A2000704770B5002100230F22C47804B32D4CF9
:101A3000246804F4E064C4F5E064210AC1F10403FD
:101A4000CA40447804FA03F1847814402143090120
:101A5000254C0678A155047804F01F050124AC40FC
:101A600005786D11AD0005F1E025C5F8004109E0EC
:101A7000047804F01F050124AC401C4D0678761153
:101A800045F8264070BD1A4A0A400243154B1B1FF9
:101A90001A60704739B1134A121D12680243114B84
:101AA0001B1D1A6006E00F4A121D126882430D4B7F
:101AB0001B1D1A607047042808D14FF0E021096906
:101AC00041F004014FF0E022116107E04FF0E02106
:101AD000096921F004014FF0E02211617047000014
:101AE0000000FA050CED00E000E400E080E100E019
:101AF00080FFFF1F10B50446CC48844208D1012165
:101B0000042000F02DFB0021042000F029FB46E01A
:101B1000C748844208D10121082000F021FB0021A0
:101B2000082000F01DFB3AE0C248844208D10121A0
:101B3000102000F015FB0021102000F011FB2EE01A
:101B4000BD48844208D10121202000F009FB00217A
:101B5000202000F005FB22E0B848844208D1012192
:101B6000402000F0FDFA0021402000F0F9FA16E0D4
:101B7000B348844208D10121802000F0F1FA00210D
:101B8000802000F0EDFA0AE0AE48844207D101213E
:101B9000801500F0E5FA0021A01500F0E1FA10BD73
:101BA00010B50121084600F0DBFA0021012000F009
:101BB000D7FA10BD2DE9F04102460025002600208D
:101BC00000230024002791F803C00CF00F0591F8C2
:101BD00003C00CF0100CBCF1000F03D091F802C050
:101BE0004CEA050591F800C0BCF1000F31D0146833
:101BF00000202BE04FF0010C0CFA00F3B1F800C00C
:101C00000CEA03069E4220D183004FF00F0C0CFA21
:101C100003F7BC4305FA03FC4CEA040491F803C043
:101C2000BCF1280F06D14FF0010C0CFA00FCC2F8F1
:101C300014C00AE091F803C0BCF1480F05D14FF081
:101C4000010C0CFA00FCC2F810C0401C0828D1D3CB
:101C50001460B1F800C0BCF1FF0F34DD54680020FF
:101C60002EE000F1080C4FF0010808FA0CF3B1F86F
:101C700000C00CEA03069E4221D183004FF00F0CF6
:101C80000CFA03F7BC4305FA03FC4CEA040491F890
:101C900003C0BCF1280F05D100F1080C08FA0CF8BC
:101CA000C2F8148091F803C0BCF1480F07D100F1CD
:101CB000080C4FF0010808FA0CF8C2F81080401C1C
:101CC0000828CED35460BDE8F0814FF6FF71018043
:101CD000022181700421C170704702460020936880
:101CE0000B400BB1012000E00020704701468868DE
:101CF00080B2704702460020D3680B400BB1012030
:101D000000E0002070470146C86880B2704701615A
:101D10007047416170470AB1016100E0416170475D
:101D2000C16070474FF480320A43826181618261F1
:101D300082698269704702460020434B18684FF65B
:101D40008073184040EA021008433F4B1860704708
:101D50003E49C8617047F0B50A46002300240021BF
:101D6000002500F00046B6F1004F02D1364EF16971
:101D700001E0354E7168C0F3034583B200F44016AC
:101D8000B6F5401F08D121F070612F4E766826F01D
:101D900070662D4F7E6012E000F48016B6F5801F4D
:101DA00006D1032606FA05F4A14341F0706106E06E
:101DB000460D360103FA06F6B14341F0706122B1D7
:101DC000460D360103FA06F6314300F00046B6F13F
:101DD000004F02D11C4EF16101E01B4E7160F0BD5D
:101DE00030B500228B071C0F0F2303FA04F2164BA9
:101DF00008338C1053F824309343134C08348D105F
:101E000044F8253023468C1053F824308C07240FD7
:101E100000FA04F423430C4C08348D1044F82530A8
:101E200030BD0A49DC3108607047000000080140FD
:101E3000000C014000100140001401400018014056
:101E4000001C014000200140000001400000204231
:101E5000DF48006840F00100DD490860084640683E
:101E6000DC490840DA49486008460068DA49084019
:101E7000D74908600846006820F4802008600846BA
:101E8000406820F4FE0048604FF41F0088607047EF
:101E9000CF49096821F48031CD4A116011460968A3
:101EA00021F480211160B0F5803F03D0B0F5802F80
:101EB0000ED106E0C649096841F48031C44A116078
:101EC00007E0C349096841F4A021C14A116000E05C
:101ED00000BF00BF704710B501460022002300205C
:101EE0004A11012A02D1BA4C236806E0022A02D123
:101EF000B74C236A01E0B64C636A01F01F0201246B
:101F000094401C400CB1012000E0002010BD38B509
:101F1000002000900024002500BF3120FFF7DBFFE8
:101F200005460098401C00900098B0F5A06F01D0C5
:101F3000002DF2D03120FFF7CEFF08B1012400E0E0
:101F40000024204638BD01460020A14A106820F038
:101F5000F80040EAC10010607047A049086070476F
:101F6000024600209A4B586820F47C1042EA010394
:101F70001843974B58607047984908667047014668
:101F80000020934A506820F00300084350607047D7
:101F90008F48406800F00C007047014600208C4AD2
:101FA000506820F0F0000843506070470146002060
:101FB000874A506820F4E06008435060704701464B
:101FC0000020834A506820F4605040EAC10050600D
:101FD000704729B17E4A527A02437D4B5A7204E01F
:101FE0007B4A527A82437A4B5A7270477B49D83186
:101FF0000860704701460020754A506820F4404050
:102000000843506070470021714A20321170704AB5
:1020100082F82010012802D004280AD104E001210E
:102020006B4A2032117005E00521694A2032117097
:1020300000E000BF00BF704769490860704764490D
:10204000096A0143624A1162704765494439086070
:10205000704730B500210022002400235C4D6D68DC
:1020600005F00C0121B1042905D0082923D105E090
:102070005C4D056022E05B4D05601FE0544D6D68CE
:1020800005F47012524D6D6805F48034022505EB9D
:1020900092421CB9544D554305600BE04C4D6D68A0
:1020A00005F400351DB1504D5543056002E04D4D1E
:1020B0005543056002E04B4D056000BF00BF444D35
:1020C0006D6805F0F0010909484D6B5C0568DD405D
:1020D00045603F4D6D6805F4E061090A434D6B5C56
:1020E0004568DD4085603A4D6D6805F46051C90A68
:1020F0003E4D6B5C4568DD40C560354D6D6805F44F
:102100004041890B3A4D6B5CC568B5FBF3F5056141
:1021100030BD29B12E4A526902432D4B5A6104E069
:102120002B4A526982432A4B5A61704729B1284A87
:1021300092690243264B9A6104E0254A92698243E0
:10214000234B9A61704729B1214AD2690243204B3F
:10215000DA6104E01E4AD26982431D4BDA6170479E
:1021600029B11B4AD2680243194BDA6004E0184ACD
:10217000D2688243164BDA60704729B1144A12695B
:102180000243134B1A6104E0114A12698243104B57
:102190001A61704712494039086070470F49C86496
:1021A00070470B49C87170470948406A40F0807019
:1021B00007494862704701460020054A92680A4074
:1021C0000AB1012000E00020704701498872704781
:1021D000001002400000FFF8FFFFF6FE0000424240
:1021E0008004424200127A0000093D00FA000020FB
:1021F0000A01002010B50446FE48844208D101219E
:10220000C014FFF7ADFF0021E014FFF7A9FFC4E001
:10221000B4F1804F08D101210846FFF7AEFF00213D
:102220000120FFF7AAFFB8E0F348844208D101215A
:102230000220FFF7A2FF00210220FFF79EFFACE083
:10224000EE48844208D101210420FFF796FF0021C7
:102250000420FFF792FFA0E0E948844208D1012161
:102260000820FFF78AFF00210820FFF786FF94E08F
:10227000E448844208D101211020FFF77EFF0021AD
:102280001020FFF77AFF88E0DF48844208D101215F
:102290002020FFF772FF00212020FFF76EFF7CE077
:1022A000DA48844208D101214014FFF759FF002188
:1022B0006014FFF755FF70E0D548844209D1012131
:1022C000C804FFF74DFF00214FF40020FFF748FF3F
:1022D00063E0D048844209D101210805FFF740FF9F
:1022E00000214FF48010FFF73BFF56E0CA488442BC
:1022F00009D101214805FFF733FF00214FF40010F9
:10230000FFF72EFF49E0C548844208D10121402053
:10231000FFF733FF00214020FFF72FFF3DE0C048CB
:10232000844208D101218020FFF727FF002180206F
:10233000FFF723FF31E0BB48844208D1012180151B
:10234000FFF71BFF0021A015FFF717FF25E0B64898
:10235000844209D101210804FFF702FF00214FF454
:102360008030FFF7FDFE18E0B048844209D101211A
:102370004804FFF7F5FE00214FF40030FFF7F0FEB0
:102380000BE0AB48844208D101218804FFF7E8FE46
:1023900000214FF48020FFF7E3FE10BD00220288E9
:1023A000944B98420ED0994B98420BD0B0F1804F8D
:1023B00008D0914B984205D0904B984202D0904B58
:1023C000984204D14FF68F731A404B881A438D4BB5
:1023D000984207D08C4B984204D04FF6FF431A40E6
:1023E000CB881A4302808B8883850B880385814BB9
:1023F00098420BD0854B984208D08B4B984205D021
:102400008A4B984202D08A4B984201D10B7A0386BC
:1024100001238382704770B5002400220023058CBD
:102420004FF6FE7635400584028C8388048B4FF688
:102430008F752C40B51E2C400D882C43751E2A40EC
:102440000D892A434D882A436A4DA8420BD06F4D0F
:10245000A84208D0744DA84205D0744DA84202D0BD
:10246000734DA84213D14FF6F7752A404D892A4380
:102470004FF6FB752A408D882A434FF6FF652B40A7
:102480004FF6FF552B408D892B43CD892B438380FD
:102490000483CD888586028470BD70B50024002237
:1024A0000023058C4FF6EF7635400584028C838837
:1024B000048B48F6FF752C404FF6FF452C400D88E5
:1024C0004FF6FF7606EA05252C434FF6DF752A40C6
:1024D0000D8906EA05152A434D8806EA05152A43A3
:1024E000444DA84202D0494DA8421DD14FF67F75F8
:1024F0002A404D894FF6FF7606EA05152A434FF626
:10250000BF752A408D8806EA05152A434FF6FF3528
:102510002B404FF2FF752B408D8906EA85052B4332
:10252000CD8906EA85052B4383800483CD88058702
:10253000028470BD70B5002400220023058C4FF684
:10254000FF6635400584028C8388848B4FF68F7537
:102550002C404FF6FC752C400D882C434FF6FF5550
:102560002A400D894FF6FF7606EA05252A434D8855
:1025700006EA05252A431F4DA84202D0234DA84252
:102580001DD14FF2FF752A404D894FF6FF7606EABE
:1025900005252A434FF6FF352A408D8806EA052592
:1025A0002A434EF6FF752B404DF6FF752B408D8963
:1025B00006EA05152B43CD8906EA05152B438380D2
:1025C0008483CD888587028470BD70B50022002386
:1025D0000024058C4EF6FF7635400584038C8488F4
:1025E000828B48F6FF752A404FF6FF452A400D883A
:1025F00020E00000002C01400004004000080040E2
:10260000000C004000100040001400400034014065
:10261000004C0140005001400054014000180040AF
:10262000001C0040002000400040014000440140E8
:10263000004801404FF6FF7606EA05252A434DF68D
:10264000FF752B400D8906EA05352B434D8806EAB8
:1026500005352B43FA4DA84202D0FA4DA84208D1C5
:102660004BF6FF752C408D894FF6FF7606EA8515EF
:102670002C4384808283CD88A0F84050038470BDB1
:10268000828B4FF2FF331A408283828B4FF6FF73A7
:1026900003EA01231A4382837047F0B50C461546BE
:1026A000002200210026078C4EF6FF7C07EA0C076B
:1026B0000784828B018C4FF6FF7707EA043640F6D9
:1026C000FF473A404FF6FF7707EA05273A434FF6B0
:1026D000FF7707EA03373A43D94FB8420ED0D94FB4
:1026E000B8420BD0B0F1804F08D0D74FB84205D0D8
:1026F000D64FB84202D0D64FB84206D14DF6FF773A
:10270000394046F48057394305E047F6FF573940D2
:1027100044F48057394382830184F0BD828B4FF6A5
:10272000F3731A408283828B0A4382837047F0B529
:102730000C461546002200210026078C4FF6FF6C40
:1027400007EA0C070784828B018C4FF6FF7707EAB4
:1027500004264FF60C773A404FF6FF7707EA031747
:102760002F433A43B64FB8420ED0B64FB8420BD0C3
:10277000B0F1804F08D0B44FB84205D0B34FB84243
:1027800002D0B34FB84206D14FF6FF57394046F456
:102790008077394305E04FF2FF57394044F48077A2
:1027A000394382830184F0BD028B4FF2FF331A401C
:1027B0000283028B4FF6FF7303EA01231A4302835D
:1027C0007047F0B50C461546002200210026078C04
:1027D0004FF6EF7C07EA0C070784028B018C4FF65B
:1027E000FF7707EA041640F6FF473A404FF6FF77B7
:1027F00007EA03373A434FF6FF7707EA05273A43DC
:102800008F4FB8420ED08F4FB8420BD0B0F1804FEF
:1028100008D08D4FB84205D08C4FB84202D08C4FB3
:10282000B84206D14FF6DF77394046F010073943FA
:1028300005E04FF65F77394044F0100739430283D3
:102840000184F0BD028B4FF6F3731A400283028BB2
:102850000A4302837047F0B50C461546002200215A
:10286000068C4FF6FE773E400684028B018C4FF6B5
:102870000C7632407E1C06EA03162E433243704E1D
:10288000B0420ED06F4EB0420BD0B0F1804F08D0A6
:102890006D4EB04205D06D4EB04202D06C4EB0428B
:1028A00006D14FF6FD76314044F00106314305E094
:1028B0004FF6F576314044F001063143028301843E
:1028C000F0BD70B505460C465D4885420ED05D48AA
:1028D00085420BD0B5F1804F08D05B48854205D0CA
:1028E0005A48854202D05A48854200D100E000BFD4
:1028F000208850B92389A28861882846FFF7ABFF5A
:10290000E1882846FFF79EFF25E0208804280AD1A9
:102910002389A28861882846FFF753FFE18828466B
:10292000FFF742FF17E0208808280AD12389A288F0
:1029300061882846FFF7FBFEE1882846FFF7EEFE98
:1029400009E02389A28861882846FFF7A6FEE1886E
:102950002846FFF795FE70BD2DE9F04105460C466F
:1029600000260127608808B9022600E00026A0881A
:10297000012801D1022700E001272088A0B923897E
:10298000A28861882846FFF766FFE1882846FFF79E
:1029900059FF23893A4631462846FFF712FFE1885E
:1029A0002846FFF701FF13E02389A28861882846A3
:1029B000FFF707FFE1882846FFF7F6FE23893A462E
:1029C00031462846FFF747FFE1882846FFF73AFFE0
:1029D000BDE8F0810A884B881A438B881A43CB885C
:1029E0001A430B891A434B891A438B891A43A0F85F
:1029F000442070474FF6FF71818000210180C18023
:102A00004180017270470021018041808180C18036
:102A1000018141818181C181704700210180418014
:102A2000012181800021C180018170470021018046
:102A300041808180C1800181418181817047000096
:102A4000002C014000340140000400400008004018
:102A5000000C004021B1028842F00102028004E033
:102A600002884FF6FE731A400280704731B1B0F809
:102A7000442042F40042A0F8442005E0B0F844208D
:102A8000C2F30E02A0F8442070471AB183890B43A9
:102A9000838102E083898B43838170478182704701
:102AA00041EA0203A0F8483070471AB183890B430A
:102AB000838102E083898B438381704701894FF6CC
:102AC000F8721140018170470A46002101894FF6D2
:102AD0008F73194011430181704730B504460D468C
:102AE00029462046FFF7F0FF208940F007002081AB
:102AF00030BD2DE9F04104460D4616461F46602DB7
:102B000006D13B46012231462046FFF75AFE05E03A
:102B10003B46012231462046FFF79DFE29462046CE
:102B2000FFF7D2FF208940F007002081BDE8F08147
:102B300030B50C4600210189C9B24FF6FF7505EA90
:102B40000325154325432943018130BD2DE9F0417B
:102B500005460E4617469846002443463A463146F7
:102B60002846FFF7E5FF2C894FF6F870044044F043
:102B700007044FF68F70044044F070042C81BDE8C8
:102B8000F081F0B504460D4616461F463B463246D8
:102B900029462046FFF7CCFF208940F48040208161
:102BA000F0BD0185828270470A46002101884FF6F8
:102BB0008F731940114301807047F0B50C461546DC
:102BC0001E460021002200230189028B038C4FF650
:102BD000F877394021434FF6FC473A4040F201175D
:102BE0003A434FF6DD773B404FF6FF7707EA06178B
:102BF0002F433B43018102830384F0BD0A46002139
:102C0000018B4FF68F7319401143018370470A46B9
:102C10000021018B48F6FF7319404FF6FF7303EA5A
:102C200002231943018370470A460021818B4FF626
:102C30008F7319401143818370470A460021818BAD
:102C400048F6FF7319404FF6FF7303EA0223194356
:102C50008183704721B1028842F08002028004E043
:102C600002884FF67F731A400280704721B1828834
:102C700042F00402828004E082884FF6FB731A401F
:102C80008280704721B1828842F00802828004E08D
:102C900082884FF6F7731A408280704721B182888C
:102CA00042F00102828004E082884FF6FE731A40EF
:102CB000828070470A460021018B4FF6F773194056
:102CC0001143018370470A460021018B4FF2FF73C5
:102CD00019404FF6FF7303EA02231943018370473B
:102CE0000A460021818B4FF6F77319401143818307
:102CF00070470A460021818B4FF2FF7319404FF64F
:102D0000FF7303EA02231943818370470A460021B7
:102D1000018B4FF6FB7319401143018370470A463C
:102D20000021018B4FF6FF3319404FF6FF7303EA82
:102D300002231943018370470A460021818B4FF615
:102D4000FB7319401143818370470A460021818B30
:102D50004FF6FF3319404FF6FF7303EA022319437E
:102D6000818370470A460021018B4FF67F7319401B
:102D70001143018370470A460021018BC1F30E0104
:102D80004FF6FF7303EA02231943018370470A4693
:102D90000021818B4FF67F73194011438183704767
:102DA0000A460021818BC1F30E014FF6FF7303EA3F
:102DB00002231943818370470A460021018C4FF694
:102DC000FD7319401143018470470A460021018CAC
:102DD0004FF6F77319401143018470470A460021EA
:102DE000018C4FF6DF7319404FF6FF7303EA0213AD
:102DF0001943018470470A460021018C4FF67F7306
:102E000019404FF6FF7303EA021319430184704718
:102E10000A460021018C4FF6FF5319404FF6FF730D
:102E200003EA02231943018470470A460021018CFA
:102E30004FF2FF7319404FF6FF7303EA0223194361
:102E4000018470470A460021018C4DF6FF7319403A
:102E50004FF6FF7303EA023319430184704730B51C
:102E6000002301248C40A3B2048C9C430484048C72
:102E700002FA01F5ADB22C43048430BD30B5002315
:102E800004248C40A3B2048C9C430484048C02FA76
:102E900001F5ADB22C43048430BD70B5034600206B
:102EA00000241846183001258D40ACB21D8CA54376
:102EB0001D8409B1082909D100EB6100056825F0DE
:102EC000700505600568154305600EE00D1FC5F32C
:102ED0004E052844056825F4E045056005684FF671
:102EE000FF7606EA02263543056070BD21B10288EF
:102EF00042F00202028004E002884FF6FD731A409D
:102F00000280704721B1028842F00402028004E08E
:102F100002884FF6FB731A400280704721B1828805
:102F200042F08002828004E082884FF67F731A406C
:102F30008280704702884FF6F7731A400280028839
:102F40000A430280704782884FF68F731A4082804E
:102F500082880A438280704702894FF6F8731A40CC
:102F6000028102890A430281704702894FF67F730A
:102F70001A40028102890A430281704781847047A6
:102F800081857047818670470187704781877047C8
:102F9000A0F84010704702884FF6FF431A400280A5
:102FA00002880A43028070470146888E70470146B6
:102FB000088F70470146888F70470146B1F840007E
:102FC00070470146888C70470146088D704702465D
:102FD0000020138A0B400BB1012000E00020704755
:102FE000CA430282704730B5024600200023002405
:102FF000158A05EA0103958905EA010413B10CB1AC
:10300000012000E0002030BDCA430282704700006A
:1030100010B50446FB48844209D101218803FFF71B
:103020009FF800214FF48040FFF79AF832E0F6480D
:10303000844209D101214804FFF79FF800214FF491
:103040000030FFF79AF825E0F048844209D10121C9
:103050008804FFF792F800214FF48020FFF78DF8E5
:1030600018E0EB48844209D10121C804FFF785F834
:1030700000214FF40020FFF780F80BE0E548844280
:1030800008D101210805FFF778F800214FF48010DE
:10309000FFF773F810BD2DE9F04786B005460E46E0
:1030A0000024A24600BFA1460027B08900B100BF9E
:1030B0002F462C8A4CF6FF700440F08804432C8283
:1030C000AC894EF6F3100440B08831890843718909
:1030D00008430443AC81AC8A4FF6FF400440B089FA
:1030E0000443AC8201A8FEF7B4FFC648874202D170
:1030F000DDF810A001E0DDF80CA0A88900F4004084
:1031000040B10AEBCA0000EB0A1031684900B0FB7D
:10311000F1F807E00AEBCA0000EB0A1031688900F9
:10312000B0FBF1F86420B8FBF0F004012009642141
:1031300001FB1089A88900F4004040B1322000EB67
:10314000C900B0FBF1F000F00700044308E03220B2
:1031500000EB09106421B0FBF1F000F00F00044314
:103160002C8106B0BDE8F0874FF4165101600021B4
:103170008180C18001810C214181002181817047C2
:1031800010B502460020108A4FF2FF0318400B884A
:103190004C8823438C882343CC88234318431082D4
:1031A00010BD0021018041808180C180704721B124
:1031B000828942F40052828104E082894DF6FF73D5
:1031C0001A4082817047F0B503460024002600258E
:1031D000002040F66A17B94200D100BF1846C1F37B
:1031E000421401F01F06012707FA06F5012C01D150
:1031F0000C3004E0022C01D1103000E014301AB180
:1032000007682F43076002E00768AF430760F0BD1F
:103210001AB1838A0B43838202E0838A8B438382C1
:103220007047028A4FF6F0731A400282028A0A43FC
:103230000282704782894FF2FF731A40828182892D
:103240000A438281704721B1828942F00202828161
:1032500004E082894FF6FD731A4082817047028A2A
:103260004FF6DF731A400282028A0A4302827047D5
:1032700021B1028A42F48042028204E0028A4BF6C3
:10328000FF731A4002827047C1F3080282807047C0
:1032900001468888C0F308007047818941F0010128
:1032A00081817047028BD2B20283028B42EA0122F3
:1032B00002837047028B02F47F420283028B0A432F
:1032C0000283704721B1828A42F02002828204E0A8
:1032D000828A4FF6DF731A408282704721B1828A58
:1032E00042F01002828204E0828A4FF6EF731A40A5
:1032F0008282704721B1828A42F00802828204E011
:10330000828A4FF6F7731A408282704721B1828910
:1033100042F40042828103E08289C2F30E0282817C
:10332000704721B1828A42F40062828204E0828A7C
:103330004FF2FF731A4082827047828A4FF6FB7306
:103340001A408282828A0A438282704721B1828A2D
:1033500042F00202828204E0828A4FF6FD731A4034
:103360008282704702460020B1F5007F00D100BF85
:1033700013880B400BB1012000E00020704701F4DE
:103380000072B2F5007F00D100BFCA4302807047CF
:1033900070B50246002400230025002040F66A167E
:1033A000B14200D100BFC1F3421501F01F03012655
:1033B00006FA03F3012D02D19689334006E0022D6F
:1033C00002D1168A334001E0968A33400C1201265E
:1033D00006FA04F41688344013B10CB1012000E061
:1033E000002070BD10B50022002340F66A14A142EF
:1033F00000D100BF0A1201249440A3B2DC43048030
:1034000010BD00000038014000440040004800406A
:10341000004C00400050004010B50446FA48844279
:1034200008D101214015FEF79BFE00216015FEF733
:1034300097FE17E0F548844208D101210015FEF7F8
:103440008FFE00212015FEF78BFE0BE0F048844232
:1034500008D10121C803FEF783FE00214FF400408C
:10346000FEF77EFE10BD30B50246002000235068F6
:10347000E84C20400D790C6844EA05242043506054
:103480009068E54C2040D1E902542C434D7944EA40
:10349000450420439060D06A20F470000C7C641EC8
:1034A000E4B2234340EA0350D06230BD0021016002
:1034B000017141718160C16001210174704721B1C6
:1034C000826842F00102826003E0826822F0010219
:1034D0008260704721B1826842F48072826003E0AA
:1034E000826822F480728260704710B50023CBB2EC
:1034F0001AB144681C43446002E044689C43446041
:1035000010BD816841F008018160704701460020CC
:103510008A6802F008020AB1012000E0002070472A
:10352000816841F0040181607047014600208A688B
:1035300002F004020AB1012000E00020704721B12E
:10354000826842F4A002826003E0826822F4A00252
:1035500082607047014600208A6802F480020AB146
:10356000012000E00020704710B50A46002100232A
:10357000416821F46041531E41EA4331416010BD6E
:1035800021B1426842F40062426003E0426822F4E2
:10359000006242607047F0B504460D4600200021ED
:1035A000092D11DDE068A5F10A0606EB460707269E
:1035B00006FA07F18843A5F10A0606EB460603FA68
:1035C00006F10843E0600CE0206905EB450707269B
:1035D00006FA07F1884305EB450603FA06F10843AE
:1035E0002061072A0FDA606B561E06EB86071F263E
:1035F00006FA07F18843561E06EB860605FA06F121
:103600000843606322E00D2A0FDA206BD61F06EB19
:1036100086071F2606FA07F18843D61F06EB8606A3
:1036200005FA06F10843206310E0E06AA2F10D06F6
:1036300006EB86071F2606FA07F18843A2F10D065E
:1036400006EB860605FA06F10843E062F0BD21B1FB
:10365000826842F48012826003E0826822F4801261
:10366000826070470146C86C80B2704766484C3033
:103670000068704721B1426842F48062426003E012
:10368000426822F480624260704721B1426842F48D
:103690008052426003E0426822F4805242607047E8
:1036A0000A460021816821F4E0411143816070479E
:1036B00021B1826842F40042826003E0826822F411
:1036C00000428260704721B1826842F40212826037
:1036D00003E0826822F402128260704701460020F3
:1036E0008A6802F400120AB1012000E0002070474D
:1036F000F0B504461546002000220026092911DDF8
:10370000E068A1F10A0707EB470C072707FA0CF25C
:103710009043A1F10A0707EB470703FA07F21043AA
:10372000E0600CE0206901EB410C072707FA0CF27E
:10373000904301EB410703FA07F210432061A06BAD
:10374000C0F30156EF1C06F1010CA7EB0C0707EBC9
:10375000870C1F2707FA0CF29043EF1C06F1010CAF
:10376000A7EB0C0707EB870701FA07F21043A063EA
:10377000F0BD10B50A4600210023816B21F44011F1
:10378000531E41EA0351816310BD08B50023009325
:103790000090009B0B440093009B1A6008BD08B585
:1037A000024600200090009201F12800009B18447E
:1037B00000900098006880B208BD0A460021416868
:1037C000164B194011434160704741628262704755
:1037D0000A460021416821F01F01114341607047F2
:1037E00040B109490831096841F40001064A08322C
:1037F000116007E004490831096821F40001024A18
:103800000832116070470000002401400028014088
:10381000003C0140FFFEF0FFFDF7F1FFFFFD3FFF21
:103820000246002013680B400BB1012000E000208D
:103830007047CA430260704770B5024600200023FB
:1038400000240B125568CEB205EA060415681D4027
:1038500015B10CB1012000E0002070BD00220A1259
:10386000D3430360704700002DE9FF4707460E462B
:1038700092464FF000083446B146354607B126B9A6
:103880004FF0FF3004B0BDE8F0874FF00008CCE007
:10389000781C10F8080016287ED2DFE800F09FA000
:1038A000A1C0C0A2A3A4A5C0C0C0C0A6B0AC0B2537
:1038B0003F59879320787F490870084601787EA099
:1038C00002F050FC7B480078012806D180A002F06D
:1038D00049FC01208249087005E082A002F042FC08
:1038E00000207F4908709BE0607872494870084664
:1038F000417882A002F036FC6E484078012806D15B
:1039000083A002F02FFC01208549087005E085A006
:1039100002F028FC00208249087081E0A078654907
:1039200088700846817883A002F01CFC614880788A
:10393000012806D185A002F015FC012088490870F5
:1039400005E088A002F00EFC00208549087067E0C1
:10395000D4F803005749C1F803000846D0F8031013
:1039600085A002F0FFFB5348B0F803108848008898
:10397000884A12881044081A8749088084480088B9
:103980000988084483490988084484490988401AF9
:1039900083490988401A00E041E082490988401AB9
:1039A000814908600846FDF77CFC39E0D4F807003F
:1039B0004049C1F807000846D0F807107BA002F084
:1039C000D1FB2DE0D4F80B003A49C1F80B000846B2
:1039D000D0F80B107BA002F0C5FB21E020E01FE037
:1039E0001EE01DE01CE01BE01AE099F800107CA02E
:1039F00002F0B8FB14E07DA002F0B4FB10E0D5F8B3
:103A00000700A9796A792B79CDE90032CDE9021056
:103A1000EB78AA7829887AA002F0A4FB00E000BF26
:103A200000BF08F1010000F0FF08387840453FF77B
:103A30002FAF002026E770477C480068401C7B4978
:103A40000860704779480068704700B5FFF7F4FFD9
:103A500000BD08B5002000900121684600F0F5F98E
:103A600008BD70B505460E4600240DB9601E70BD38
:103A700000241BE0295D6E48FFF706FC00BF4021D3
:103A80006B48FFF76FFC0028F9D0022C0DD3285D9E
:103A9000FF280AD155216648FFF7F6FB00BF4021F9
:103AA0006348FFF75FFC0028F9D0641CB442E1D3FF
:103AB0003046DCE72C0100204576743A2045564517
:103AC0004E545F57617368202564200A000000008F
:103AD0000977617368206D6F6465206F6E090A0055
:103AE0000000002077617368206D6F646520656C4D
:103AF00073652D2D2D2D2D2D2D0A00004576743A40
:103B0000204556454E545F447279202564200A00B2
:103B1000447279206D6F6465206F6E200A0000008A
:103B200001000020447279206D6F646520656C731C
:103B300065200A004576743A204556454E545F5735
:103B4000617368447279202564200A0057617368A4
:103B5000447279206D6F6465206F6E200A0000004A
:103B60000200002057617368447279206D6F6465AC
:103B700020656C7365200A004576743A4556454EBB
:103B8000545F5761736854696D652025640A0000AD
:103B900024010020280100202601002032000020FE
:103BA0003400002036000020E40000204576743AFE
:103BB0004556454E545F44727954696D65202564BD
:103BC0000A0000004576743A4556454E545F5761E9
:103BD000736844727954696D652025640A00000099
:103BE000525353492025640A000000005452414EAC
:103BF00053504152454E545F44415441200A000005
:103C0000574946495F4E5450203A205B25642D2584
:103C1000642D256420253032643A253032643A25FB
:103C20003032645D5B25645D200A000010010020D5
:103C30000048004010B504461CB9F9A002F092FA01
:103C400010BDE0686060E068A06000BFF8E710B5F4
:103C500004461CB9F2A002F085FA10BD0020E06015
:103C60006060A060206000BFF7E710B504462CB983
:103C7000EBA002F077FA4FF0FF3010BD2068FCE7B0
:103C800010B504462CB9E6A002F06CFA4FF0FF30F4
:103C900010BD6068A168884201D10020F8E7606823
:103CA000A168884203D2A0686168401AF0E7204604
:103CB000FFF7DBFF6168A268891A401AE8E770B570
:103CC00004462CB9D6A002F04DFA4FF0FF3070BD7B
:103CD0002046FFF7CAFF05462046FFF7D1FF281A06
:103CE000F5E72DE9F04104460F46164600252CB9AC
:103CF000CBA002F037FA681EBDE8F0812FB9CFA043
:103D000002F030FA4FF0FF30F6E76068A1688842B1
:103D100014D22046FFF7B4FFB04201D9304602E08A
:103D20002046FFF7ADFF054661682A46384602F097
:103D300025FB6068284460602846DDE72046FFF7E1
:103D400094FF6168E268891A401AB0420AD9354680
:103D500061682A46384602F011FB606828446060BA
:103D60002846C9E72046FFF780FF6168E268891AA4
:103D7000451A61682A46384602F000FBE068606038
:103D8000721B79192046FFF7ACFF05442846B3E7BC
:103D90002DE9F04104460F46154600262CB9AEA089
:103DA00002F0E0F9701EBDE8F0812FB9B0A002F07A
:103DB000D9F94FF0FF30F6E72046FFF780FFA84221
:103DC0000AD82046FFF77BFF80464146AEA002F0AE
:103DD000C9F94FF0FF30E6E76068A16888422AD849
:103DE0002046FFF742FFA168E268891A461AB542E9
:103DF00013D8A0682A46394602F0C0FAA0682844C1
:103E0000A0602046FFF731FFE1680844A1688842BE
:103E100001D1E068A0602846C5E7A068324639466F
:103E200002F0ACFAE068A060AA1BB9192046FFF7BF
:103E3000AFFF3044B7E7A0682A46394602F09EFA41
:103E4000A0682844A0602846ADE770B504460D463A
:103E5000002624B992A002F085F9701E70BD2A4692
:103E600021469848FFF794FF0646AE4205D096A03B
:103E700002F078F94FF0FF30F0E73046EEE72DE939
:103E8000F04104460D460027002604B135B9294605
:103E900094A002F067F90020BDE8F081022603E05B
:103EA000A05D3844C7B2761C681EB042F8D83846C8
:103EB000F2E701B581B0694601AA50780870107820
:103EC0004870BDF800000CBD0146080601F47F42B1
:103ED00040EA022001F47F0240EA122040EA116029
:103EE00070472DE9F04104460E4600250027A846FC
:103EF0002CB98AA002F036F9681EBDE8F0810025D1
:103F00000AE0675D701B401E14F8008004F805800D
:103F1000701B401E27546D1CB5EB560FF1D30020CB
:103F2000EBE710B503460020541AB4FBF3F010BDC4
:103F300010B50346002002FB031010BD2DE9F04729
:103F400004460E46154600273146284603F002FA7D
:103F50008146214602F086FF804603F095F8074629
:103F60003846BDE8F0872DE9F04704460E46154671
:103F70000027284603F0A8F88146214603F0ECF814
:103F80008046314602F000FF07463846BDE8F0871C
:103F9000024612B102F0070028B9082901D8002012
:103FA00070470120FCE702F00700C0F108008842DA
:103FB00001D30020F4E70120F2E710B504462CB944
:103FC00061A002F0CFF84FF0FF3010BD002020605C
:103FD0006060FF20207060700020F6E770B5044636
:103FE0000D462CB922A002F0BDF84FF0FF3070BD95
:103FF00040F2BE315F4802F05AFA2A4621465D4837
:10400000801C02F0BBF95C48A0F8305B012180F80D
:104010007917FFF717FD5849C1F8320B0020E6E782
:104020004552524F523A20696E7075742072622068
:104030006973204E554C4C0A000000004552524F07
:10404000523A20696E7075742064617461206973DE
:10405000204E554C4C0A00004552524F523A2072A5
:104060006220697320656D707479200A0000000079
:104070004552524F523A2064617461206973206541
:104080006D707479200A00004552524F523A206EEA
:104090006F206D656D6F7279202564200A00000025
:1040A0004552524F523A2067697A50757444617490
:1040B000612062756620697320656D707479200ACD
:1040C00000000000A40E00204552524F523A2046F4
:1040D00061696C656420746F2072625772697465DF
:1040E000200A00004552524F523A2067697A5072B6
:1040F0006F746F636F6C53756D202C206275662032
:10410000697320656D707479206F72206C656E2004
:104110006572726F72202564200A000067697A4216
:104120007974654F7264657245786368616E67651E
:10413000204572726F72202C20496C6C6567616C2F
:1041400020506172616D0A004552524F523A206709
:10415000697A50726F746F636F6C48656164496E01
:104160006974206865616420697320656D70747975
:10417000200A0000500A0020D80200202DE9FC5F30
:1041800005460C46164699460C9F4FF0000AD3464A
:10419000002001908046B9F1000F00D037B9FDA092
:1041A00001F0E0FF4FF0FF30BDE8FC9F3A46494682
:1041B000684602F0E3F8012F0CD939466846FFF74C
:1041C00090FEB0F1FF3F05D1FEA001F0CBFF4FF014
:1041D000FF30E9E731462046FFF7DAFE8246BAF1C2
:1041E000000F0CD11DF8050004F007010841C6F1CD
:1041F0000802FF211141084040EA080821E0BAF115
:10420000010F1ED1681C1DF8000004F00701C1F168
:104210000801711AC1F10802FF21114100EA010BE6
:104220001DF8050004F007010841019004F00700A3
:10423000C0F108010BFA01F040EA0808019848EAC9
:1042400000084046B0E72DE9F05F05460E4690466F
:104250001C460A9F4FF0000AD346D14634B9E6A067
:1042600001F080FF4FF0FF30BDE8F09F414630463F
:10427000FFF78EFE8146B9F1000F07D1605D06F0B1
:10428000070107FA01F1084360551EE0B9F1010F7B
:104290001BD1F8B206F00701C1F1080140FA01FA9A
:1042A00006F00700C0F10801FF20084100EA070BF3
:1042B000681C205C40EA0A00691C6054605D06F0DE
:1042C00007010BFA01F1084360550020CCE701B566
:1042D00081B000200090694601AA507808701078DB
:1042E0004870BDF800000CBDF8B505460C461646F2
:1042F0000DB104B12EB9CAA001F034FF4FF0FF3068
:10430000F8BD287800F0010098B110212278601CD7
:1043100081542078401C207001206B1C0246002133
:1043200000900846FFF72AFF08B1012000E00020B6
:1043300030702878C0F3400098B111212278601CB9
:1043400081542078401C207001206B1C02460146DD
:1043500000900020FFF712FF08B1012000E00020CC
:1043600070702878C0F3800098B112212278601C08
:1043700081542078401C207001206B1C02460221D1
:1043800000900020FFF7FAFE08B1012000E00020B5
:10439000B0702878C0F3C00088B113212278601C67
:1043A00081542078401C20706888FFF790FF0746F2
:1043B0003A4600210120FFF7BBFDC6F8030028782C
:1043C000C0F3001088B114212278601C8154207839
:1043D000401C2070A888FFF77AFF07463A46002164
:1043E0000120FFF7A5FDC6F807002878C0F34010AC
:1043F00088B115212278601C81542078401C2070DF
:10440000E888FFF764FF07463A4600210120FFF7DE
:104410008FFDC6F80B00002072E770B504460D460C
:10442000002604B12DB989A001F09CFE4FF0FF30A9
:1044300070BD28782178884203D08EA001F092FECA
:10444000012668786178884203D08FA001F08AFE47
:104450000126A878A178884203D090A001F082FEBE
:104460000126D5F80300D4F80310884203D091A0A8
:1044700001F078FE0126D5F80700D4F8071088422D
:1044800003D092A001F06EFE0126D5F80B00D4F8FF
:104490000B10884203D093A001F064FE0126D5F8EA
:1044A0000F00D4F80F10884210D0FFF7CBFA9449D0
:1044B0000968401A41F27071884207D391A001F057
:1044C00051FEFFF7BFFA8E4908600126D4F8131099
:1044D000D5F8130002F088FD10D0FFF7B3FA884931
:1044E0000968401A41F27071884207D38AA001F02E
:1044F00039FEFFF7A7FA824908600126D4F81710A1
:10450000D5F8170002F070FD10D0FFF79BFA7C4938
:104510000968401A41F27071884207D383A001F004
:1045200021FEFFF78FFA76490860012630467FE7C3
:10453000F8B504460D4604B12DB981A001F012FE74
:104540004FF0FF30F8BD00202870E41C14F8030C75
:104550002B460122002100900846FFF774FE14F854
:10456000020C2B460122114600900020FFF76BFE43
:1045700014F8010C2B460122022100900020FFF7C5
:1045800062FE01212846FFF7ACFCE2686FF06D0186
:104590000120EDE067697A4465636F6D7072657341
:1045A00073696F6E56616C7565204572726F72200B
:1045B0002C20496C6C6567616C20506172616D0ADA
:1045C0000000000067697A4465636F6D70726573FF
:1045D00073696F6E56616C75652067697A4279748C
:1045E000654F7264657245786368616E67652045E2
:1045F00072726F72200A000067697A436F6D707281
:1046000065737356616C7565204572726F72202CEC
:1046100020496C6C6567616C20506172616D0A00A5
:1046200067697A44617461506F696E74324576656A
:104630006E74204572726F72202C20496C6C656715
:10464000616C20506172616D0A00000067697A43F5
:104650006865636B5265706F7274204572726F7219
:10466000202C20496C6C6567616C20506172616D13
:104670000A00000076616C756557617368204368B5
:10468000616E6765640A000076616C7565447279D5
:10469000204368616E6765640A00000076616C758E
:1046A0006557617368447279204368616E67656419
:1046B0000A00000076616C75655761736854696D16
:1046C00065204368616E6765640A000076616C75F9
:1046D0006544727954696D65204368616E676564ED
:1046E0000A00000076616C756557617368447279E1
:1046F00054696D65204368616E6765640A00000057
:104700001401002076616C756550726573204368F2
:10471000616E6765640A000076616C756554656D4D
:1047200070204368616E6765640A000076616C758D
:104730006548756D69204368616E6765640A0000AD
:1047400067697A44617461506F696E74733252653F
:10475000706F727444617461204572726F72202CA4
:1047600020496C6C6567616C20506172616D0A0054
:10477000FFF7D7FBE871226800210120FFF7D1FB8A
:1047800086B23046FFF7A3FDA5F80100626800215C
:104790000120FFF7C6FB86B23046FFF798FDA5F86B
:1047A0000300A26800210120FFF7BBFB86B2304660
:1047B000FFF78DFDA5F805002269FE49FE48FFF7C9
:1047C000BDFB86B23046FFF782FD28816269E41E98
:1047D0000021F948FFF7B2FB86B23046FFF777FDBC
:1047E00068810020AEE62DE9F04704460E461746E4
:1047F0001D46A0464FF0000998F808900CB107B18B
:1048000035B9EEA001F0AEFC4FF0FF30BDE8F08707
:104810001721F64801F029FEB9F1010F06D0B9F1D0
:10482000020F11D0B9F1050F44D123E0EF4A453210
:10483000EE4904F10900FFF757FD0120EC4908702B
:1048400000270020286036E0E8497B31A1F11B00F9
:10485000FFF76EFE50B9E5487B300168396041686A
:1048600079608068B8600C20286002E04FF0FF306B
:10487000CCE720E0A6F10A0204F10901DD4801F0CD
:104880007DFDA6F10A00DA49C1F870070F21D8486A
:1048900090F8362B00F637308154D54890F8360B17
:1048A000401CD34981F8360B0320087000270020F4
:1048B000286000E000BF00BF0020A7E72DE9F04717
:1048C0008AB00446884616460027BA46B9462546A9
:1048D00014B1B8F1000F07D1C7A001F043FC4FF0AD
:1048E000FF300AB0BDE8F087D6B901A8FFF765FB35
:1048F0002079401CC0B28DF8080060798DF809005D
:104900000520FFF7D6FAADF80600092101A8FFF748
:10491000B6FA8DF80C000DF1040A4FF0090925E0F4
:1049200004A8FFF74AFB2879401CC0B28DF8140098
:1049300068798DF81500B11D88B2FFF7BAFAADF8A5
:104940001200287A401CC0B28DF818003246414649
:104950000DF1190001F012FD162104A8FFF78FFADE
:104960008DF825000DF1100A4FF016094946504602
:10497000FFF777F80746002F04DA4A463946AA4877
:1049800001F0F0FB3846ACE7F0B587B005460E46BF
:10499000174600242EB9A5A001F0E4FB601E07B065
:1049A000F0BD01A8FFF709FB05208DF8080090482D
:1049B00090F87417D0F87407401C8D4AC2F8740739
:1049C000C8B28DF809008DF80C501220FFF771FA6B
:1049D000ADF806003A4631460DF10D0001F0CEFC6F
:1049E000162101A8FFF74BFA8DF81900162101A82E
:1049F000FFF737F80446002C03DA214695A001F0B2
:104A0000B1FB162101A8FFF7E9FA2046C7E710B568
:104A10000446764960312046FFF7FFFC012814D197
:104A200094A001F09FFB71497B312046FFF780FD88
:104A300028B90C226D497B310420FFF7A5FF1B220A
:104A400021466A48603001F099FCFEF7FBFF8F4970
:104A500090FBF1F201FB1200A0B98DA001F082FBE6
:104A600062497B312046FFF763FD28B90C225F497C
:104A70007B310420FFF788FF1B2221465B48603012
:104A800001F07CFC10BD2DE9FE4F80460E46174616
:104A90004FF0000B002002908146824600253446EC
:104AA0000090B8F1000F01D006B137B97EA001F037
:104AB00059FB4FF0FF30BDE8FE8F4046FFF7E0F8AE
:104AC00000F0FF0ABAF1000F02D14FF0FF30F2E719
:104AD0004FF000095DE0012201A94046FFF701F90E
:104AE0008346BBF1000F52D07B480078FF281FD1CE
:104AF0009DF80400FF281BD17848007848B9FF20B2
:104B00002070607002207649088001207349087087
:104B100034E073480088042830DD71480088A842DA
:104B20002CD0FF202070607002206D49088025E0A5
:104B300069480078FF2803D19DF8040055281DD04E
:104B400066480078012819D19DF804006449098855
:104B5000605463480088401C61490880084600880A
:104B600004280BDD0094009C6088FFF7A2F9001D6B
:104B700085B25B480088A84200D10CE09DF8040093
:104B80005549087057480078401C5649087009F18B
:104B90000109D1459FDB00BF51480088042807DD8B
:104BA0004F480088A84203D14D48018820469BE029
:104BB000B7E000000000A0C0CDCCCC3D67697A50C2
:104BC000726F746F636F6C49737375656450726F45
:104BD00063657373204572726F72202C20496C6C70
:104BE0006567616C20506172616D0A000E0E0020D5
:104BF000D80200208F06002067697A50726F746FA8
:104C0000636F6C4973737565644461746141636B70
:104C1000204572726F72202C20496C6C6567616C44
:104C200020506172616D0A005074000867697A5201
:104C300065706F727444617461204572726F722086
:104C40002C20496C6C6567616C20506172616D0A43
:104C5000000000004552524F523A20756172742094
:104C60007772697465206572726F72202564200AFC
:104C7000000000006368616E6765642C20726570D7
:104C80006F727420646174610A000000C02709001B
:104C9000496E666F3A2036303053207265706F72FD
:104CA0007420646174610A0067697A50726F746F6E
:104CB000636F6C4765744F6E655061636B657420FC
:104CC0004572726F72202C20496C6C6567616C2094
:104CD000506172616D0A00001C0100201801002063
:104CE0001A0100201D010020FFF7C9F80290FE48BC
:104CF0000088401E215C029881420FD12A4621463D
:104D0000304601F03BFB3D800020F8490870F64931
:104D10000880F7490870F7490870CCE66FF0010089
:104D2000C9E60120C7E610B50024F34890F87907DA
:104D300000B910BDF1A001F015FAEF48B0F8301B32
:104D400000F27A70FEF78DFE0446EB48B0F8300BA7
:104D5000A04202D0F1A001F005FAFEF773FEE64989
:104D6000C1F8320B00BFE4E770B50446F24D34B928
:104D7000AFF6045001F0F6F94FF0FF3070BD28791E
:104D8000401C2179884205D140F2BE31EA48801E9C
:104D900001F08DFB0020F1E73EB50446002524B963
:104DA000E6A001F0DFF9681E3EBD20680090606853
:104DB00001909DF80400401CC0B28DF8040005204D
:104DC000FFF777F8ADF8020009216846FFF757F8BA
:104DD0008DF8080009216846FEF743FE0546002DC0
:104DE00004DA2946AFF2941001F0BCF92846DBE75B
:104DF00010B5C14890F87907012829D1BE4890F82C
:104E0000780702281EDAFEF71DFEBB49D1F8321BD7
:104E1000401AB0F5FA6F1BD9FEF714FE0446B648E7
:104E200090F87837D0F8322B2146CFA001F09AF9CC
:104E3000FFF779FFB04890F87807401CAE4981F839
:104E4000780705E040F2BE31BB48801E01F02FFB21
:104E500010BD30B59DB0044600252CB9CCA001F0A2
:104E600081F9681E1DB030BD6846FFF7A6F8022024
:104E70008DF8040060798DF80500D1A103C9CDE952
:104E80000201D2A103C9CDE90401D3A103C9CDE92F
:104E90000801D4A103C9CDE906012022D4A10AA8A2
:104EA00001F0B1FA2022DBA10DF1520001F066FA07
:104EB0000020CDF84A00CDF84E009DF851008DF845
:104EC00051009DF8510040F002018DF85110002072
:104ED000FEF7EFFFADF848006F20FEF7EAFFADF8F0
:104EE000020073216846FEF7CAFF8DF87200732135
:104EF0006846FEF7B6FD0546002D04DA2946AFF2F6
:104F0000AC2001F02FF92846ACE7FEB504460E466A
:104F1000002524B9C8A001F025F9681EFEBD684629
:104F2000FFF74BF812208DF8040060798DF805002A
:104F30000620FEF7BEFFADF802008DF808600A21DA
:104F40006846FEF79CFF8DF809000A216846FEF7C7
:104F500088FD0546002D04DA2946AFF2083001F03D
:104F600001F92846DAE770B504460026254624B93B
:104F7000BCA001F0F7F8701E70BDC048A9680160C0
:104F8000E9684160298A0181A97C81725A49B1F896
:104F9000BE0BFEF78EFF5849A1F8BE0BD1F8C50B2A
:104FA000FEF792FF5449C1F8C50B0E21524890F804
:104FB000642B00F6653081544F4890F8640B401C18
:104FC0004D4981F8640B042008700020D4E710B527
:104FD000FEF738FD044600BFFEF734FD001BB0F5B8
:104FE000167FF9D9FEF727FD10BD10B504462CB980
:104FF000A3A001F0B7F84FF0FF3010BD2089FEF7F5
:1050000058FF2081AA480078C0F38000217AC1F3BC
:10501000800188425AD0207AC0F3800000282BD02B
:10502000207A00F0010080B10021334890F84D2B28
:1050300000F64E308154304890F84D0B401C2E49FC
:1050400081F84D0B9BA001F08DF8207AC0F3400051
:1050500000283BD00121284890F84D2B00F64E3017
:105060008154254890F84D0B401C234981F84D0B85
:1050700098A001F077F829E0207A00F0010080B1D3
:1050800000211D4890F84D2B00F64E3081541A48EF
:1050900090F84D0B401C184981F84D0B85A001F08C
:1050A00061F8207AC0F3400080B10221124890F8E4
:1050B0004D2B00F64E3081540F4890F84D0B401C9C
:1050C0000D4981F84D0B8AA001F04CF87848007822
:1050D000C0F3C000217AC1F3C001884202D0207A17
:1050E000C10813E13FE100001A010020180100206F
:1050F0001D0100201C010020D80200205761726EA3
:10510000696E673A2074696D656F75742C207265DD
:1051100073656E642064617461200A004552524FC9
:10512000523A20726573656E642064617461206513
:1051300072726F720A000000520A00204552524FEC
:10514000523A2067697A50726F746F636F6C436F65
:105150006D6D6F6E41636B206461746120697320B3
:10516000656D707479200A005761726E696E673AD6
:1051700067697A50726F746F636F6C526573656E96
:1051800064446174612025642025642025640A003C
:1051900067697A50726F746F636F6C4765744465AA
:1051A00076696365496E666F204572726F72202C56
:1051B00020496C6C6567616C20506172616D0A00FA
:1051C000303030303030303400000000303030309B
:1051D0003030303200000000303330313031303187
:1051E000000000003033303130313030000000003A
:1051F00036363165633234333038333134326566B4
:1052000062616264306337633835366362386535AE
:105210000000000063633632623530323965663330
:1052200034643631383134366566666530626630EE
:10523000656263650000000067697A50726F746F81
:10524000636F6C4572726F72436D64204572726F4A
:1052500072202C20496C6C6567616C205061726112
:105260006D0A00004552524F523A204E5450206968
:105270007320656D707479200A000000960E00207E
:1052800067697A50726F746F636F6C4D6F64756C81
:1052900065537461747573204572726F72202C208F
:1052A000496C6C6567616C20506172616D0A000029
:1052B0001E0100204F6E426F617264696E673A2072
:1052C000536F66744150206F7220576562206D6F76
:1052D00064650A004F6E426F617264696E673A20BE
:1052E0004169724C696E6B206D6F64650A00000045
:1052F0004F6E426F617264696E673A2053746174D5
:10530000696F6E206D6F64650A000000FE480088BA
:1053100061F3C300FC490880207AC0F3C00088B163
:105320000321FA4890F84D2B00F64E308154F7488F
:1053300090F84D0B401CF54981F84D0BF4A000F09E
:1053400011FF10E00421F14890F84D2B00F64E308B
:105350008154EE4890F84D0B401CEC4981F84D0B00
:10536000F3A000F0FFFEE8480078C0F30010217AB7
:10537000C1F3001188422ED0207A0109E24800884A
:1053800061F30410E0490880207AC0F3001088B16E
:105390000521DE4890F84D2B00F64E308154DB4855
:1053A00090F84D0B401CD94981F84D0BE8A000F056
:1053B000D9FE10E00621D54890F84D2B00F64E306E
:1053C0008154D24890F84D0B401CD04981F84D0BC8
:1053D000E7A000F0C7FECC480078C0F34010217A67
:1053E000C1F3401188422ED0207A4109C648008876
:1053F00061F34510C4490880207AC0F3401088B199
:105400000721C24890F84D2B00F64E308154BF481A
:1054100090F84D0B401CBD4981F84D0BDDA000F00C
:10542000A1FE10E00821B94890F84D2B00F64E304F
:105430008154B64890F84D0B401CB44981F84D0B8F
:10544000DBA000F08FFEB0480088C0F3C0202189A7
:10545000C1F3C02188422ED02089C10AAA48008801
:1054600061F3CB20A84908802089C0F3C02088B10F
:105470000B21A64890F84D2B00F64E308154A348DE
:1054800090F84D0B401CA14981F84D0BD0A000F0C5
:1054900069FE10E00C219D4890F84D2B00F64E302F
:1054A00081549A4890F84D0B401C984981F84D0B57
:1054B000CEA000F057FE94480088C0F30030218948
:1054C000C1F3003188422ED02089010B8E4800881C
:1054D00061F30C308C4908802089C0F3003088B11A
:1054E00009218A4890F84D2B00F64E3081548748A8
:1054F00090F84D0B401C854981F84D0BC3A000F07E
:1055000031FE10E00A21814890F84D2B00F64E3014
:1055100081547E4890F84D0B401C7C4981F84D0B1E
:10552000C1A000F01FFE0D21784890F84D2B00F629
:105530004E308154754890F84D0B401C734981F8EA
:105540004D0B2089C0F3022081F8BD0B084690F86E
:10555000BD1BBCA000F006FE02206C4908700020B4
:105560004BE510B540F26C70BA490860BA48C860A3
:105570000846FEF75FFB40F6CC31644800F097FF29
:1055800010BD30B587B005460024052D7ED2DFE87A
:1055900005F003316193B90001A8FEF70EFD0B2061
:1055A0008DF80800594890F87417D0F87407401C1B
:1055B000564AC2F87407C8B28DF809000520FEF7F4
:1055C00078FCADF80600092101A8FEF758FC8DF81B
:1055D0000C00092101A8FEF744FA0446002C04DA65
:1055E0002146AFF6901000F0BDFD092101A8FEF79D
:1055F000F5FC6EE104A8FEF7E0FC09208DF814002C
:10560000424890F87417D0F87407401C3F4AC2F81B
:105610007407C8B28DF815008DF818500620FEF7F3
:1056200048FCADF812000A2104A8FEF728FC8DF80A
:1056300019000A2104A8FEF714FA0446002C04DA23
:105640002146AFF6F01000F08DFD0A2104A8FEF708
:10565000C5FC3EE104A8FEF7B0FC09208DF814005B
:105660002A4890F87417D0F87407401C274AC2F8EB
:105670007407C8B28DF815008DF818500620FEF793
:1056800018FCADF812000A2104A800E01DE1FEF7A5
:10569000F6FB8DF819000A2104A8FEF7E2F904468A
:1056A000002C04DA2146AFF6542000F05BFD0A21FD
:1056B00004A8FEF793FC0CE101A8FEF77EFC132082
:1056C0008DF80800114890F87417D0F87407401C42
:1056D0000E4AC2F87407C8B28DF809000520FEF71B
:1056E000E8FBADF80600092101A8FEF7C8FB8DF81C
:1056F0000C00092101A8FEF7B4F90446002C02DAD7
:105700002146ABE0B3E0ADE01E010020D80200204E
:1057100057694669207374617475733A20696E2005
:1057200062696E64696E67206D6F64650A000000CF
:1057300057694669207374617475733A206F757484
:105740002062696E64696E67206D6F64650A00008F
:1057500057694669207374617475733A20636F6E7C
:105760006E656374656420726F757465720A0000FB
:1057700057694669207374617475733A206469735C
:10578000636F6E6E656374656420726F75746572A5
:105790000A00000057694669207374617475733A92
:1057A00020636F6E6E6563746564206D326D0A00F0
:1057B00057694669207374617475733A206469731C
:1057C000636F6E6E6563746564206D326D0A0000F0
:1057D00057694669207374617475733A20617070FB
:1057E00020636F6E6E6563740A0000005769466936
:1057F000207374617475733A206E6F20617070202D
:10580000636F6E6E6563740A000000005769466935
:10581000207374617475733A20696E2074657374B3
:10582000206D6F64650A00005769466920737461D2
:105830007475733A206F75742074657374206D6F7E
:1058400064650A0052535349206973202564200A75
:1058500000000000A40E0020B40E0020AFF60C40A3
:1058600000F080FC092101A8FEF7B8FB31E001A897
:10587000FEF7A3FB15208DF80800CD4890F87417AB
:10588000D0F87407401CCA4AC2F87407C8B28DF831
:1058900009000520FEF70DFBADF80600092101A85F
:1058A000FEF7EDFA8DF80C00092101A8FEF7D9F8F2
:1058B0000446002C04DA2146AFF6684000F052FCA2
:1058C000092101A8FEF78AFB03E0BAA000F04AFC18
:1058D00000BF00BF204607B030BD3EB5002468467B
:1058E000FEF76BFB17208DF80400B14890F8741791
:1058F000D0F87407401CAE4AC2F87407C8B28DF8DD
:1059000005000520FEF7D5FAADF80200092168462A
:10591000FEF7B5FA8DF8080009216846FEF7A1F8F0
:105920000446002C03DA2146A8A000F01BFC092144
:105930006846FEF753FB3EBDF0B5ADF2747D0446FC
:1059400000250027002001900090002634B9A8A06F
:1059500000F008FC681E0DF2747DF0BDFFF748FAF8
:1059600001AA9349491CAC48FFF78DF80546002D64
:105970006DD1AAA000F0F6FB8D4E761C30790D2873
:1059800033D00EDC07282CD006DC012816D00328E3
:1059900018D0062852D12FE00A282ED00C284DD13D
:1059A0002CE0142839D004DC0F282CD0112845D144
:1059B00032E0162823D0182840D135E03046FFF7D2
:1059C00048FA43E06B4602AABDF804107848401C30
:1059D000FEF709FF20B902A93046009AFEF76EFFD4
:1059E00034E03046FFF7D8F930E03046FFF7D4F91D
:1059F0003046FFF7FAFA29E000BF00BF00BF30468B
:105A0000FFF7B2F922E03046FFF7C6F988A000F0B0
:105A1000A9FBFFF7DCFA19E018E03046FFF7A4F91C
:105A200088A000F09FFB11E03046FFF79DF930465B
:105A3000FFF799FA8BA000F095FB07E002213046B2
:105A4000FFF763FA8DA000F08DFB00BF0EE015F1AB
:105A5000020F0BD1564E761C01213046FFF755FA46
:105A60008CA000F07FFB6FF0010074E750480078D5
:105A7000012806D0022813D0032821D004283BD1C6
:105A80002AE000204A4908701B2201F67B31A1F16F
:105A90004500FDF7E9FE1721854800F0E6FC2BE004
:105AA000002043490870012201F6BD31A1F17000C8
:105AB000FDF7DAFE17217E48173000F0D6FC1BE018
:105AC00000203B490870084600F2B731D0F8702733
:105AD0007748FDF7C9FE0FE00020354908700B221A
